S0050000CA9799
S3150800000000040020C53401084F32010851320108A6
S315080000105332010855320108573201080000000022
S315080000200000000000000000000000005B3201082C
S3150800003059320108000000005D320108092E010846
S315080000405F3201086132010863320108653201082E
S3150800005067320108693201086B3201086D320108FE
S315080000606F320108713201087332010875320108CE
S3150800007077320108793201087B3201087D3201089E
S315080000807F3201088132010883320108853201086E
S3150800009087320108893201088B3201088D3201083E
S315080000A08F3201089132010893320108953201080E
S315080000B097320108993201089B3201089D320108DE
S315080000C09F320108A1320108A3320108A5320108AE
S315080000D0A7320108271D0108A9320108AB32010819
S311080000E0AD320108AF320108B132010848
S3150801000010B50446207818280AD2204603F08CF841
S31508010010601C2178034A52F82110BDE810400847B0
S31508010020242010BDB4320108F0B581B006462C244F
S31508010030DFF8A45C002E4CD1DFF8A07C4FF4005108
S31508010040384602F060FE4FF48051384602F05DFEF4
S315080100504FF48051384602F056FE4FF48051384627
S3150801006002F053FE4FF48051384602F04EFE4FF42B
S315080100708051384602F047FE4FF48051384602F067
S3150801008044FE4FF48051384602F03DFE4FF480514C
S31508010090384602F03AFE4FF48051384602F033FEF4
S315080100A04FF48051384602F030FE4FF480513846FD
S315080100B002F029FE4FF48051384602F026FE4FF42D
S315080100C08051384602F01FFE00202870204601B0F4
S315080100D0F0BD2878864222D0072E19D106281CD1D0
S315080100E0DFF8F87B4FF40051384602F00CFE4FF466
S315080100F08051384602F009FE4FF48051384602F025
S3150801010002FE4FF48051384602F0FFFD072069E0F0
S315080101100E2E6CD10D2800F099812524D6E7062EDE
S315080101202FD1DFF8B87B4FF40051384602F0EBFDCA
S315080101304FF48051384602F0E8FD4FF480513846B5
S3150801014002F0E1FD4FF48051384602F0DEFD07204A
S315080101502870DFF8887B4FF40051384602F0D3FD4A
S315080101604FF48051384602F0D0FD4FF4805138469D
S3150801017002F0C9FD4FF48051384602F0C6FD082049
S3150801018030E00D2EA2D1DFF8547B4FF400513846EA
S3150801019002F0B9FD4FF48051384602F0B6FD4FF42E
S315080101A08051384602F0AFFD4FF48051384602F0CF
S315080101B0ACFD0E202870DFF8247B4FF40051384639
S315080101C002F0A1FD4FF48051384602F09EFD4FF42E
S315080101D08051384602F097FD4FF48051384602F0B7
S315080101E094FD0F202870287886423FF46FAF28784F
S315080101F00F2800F2478102A131F910108F4400BF80
S31508010200200052015000AA00DE000E01E0FE440162
S315080102104C018201B201E60116024C027C024C0134
S31508010220DFF8B87A4FF40051384602F06EFD4FF404
S315080102308051384602F069FD4FF48051384602F084
S3150801024062FD4FF48051384602F05FFD0120C9E78F
S31508010250DFF8887A092E4FF40051384612D302F096
S3150801026052FD4FF48051384602F04FFD4FF480514C
S31508010270384602F048FD4FF48051384602F045FDF4
S315080102800920AFE702F041FD4FF48051384602F0EC
S315080102903CFD4FF48051384602F035FD4FF480514C
S315080102A0384602F032FD03209CE7042E17D1DFF809
S315080102B02C7A4FF40051384602F027FD4FF480514D
S315080102C0384602F022FD4FF48051384602F01BFDF4
S315080102D04FF48051384602F018FD042082E7DFF812
S315080102E0FC794FF40051384602F00DFD4FF4805168
S315080102F0384602F00AFD4FF48051384602F003FDF4
S315080103004FF48051384602F000FD05206AE7062EB3
S315080103107FF41FAFDFF8C4794FF40051384602F075
S31508010320F4FC4FF48051384602F0EFFC4FF480514B
S31508010330384602F0E8FC4FF48051384602F0E5FCF5
S315080103400620C2E6042E7FF404AFB0E7012E3FF47F
S3150801035067AFDFF888794FF40051384602F0D3FCCD
S315080103604FF48051384602F0D0FC4FF4805138469C
S3150801037002F0C9FC4FF48051384602F0C6FC02204F
S3150801038030E7DFF858794FF40051384602F0BDFCE2
S315080103904FF48051384602F0B8FC4FF48051384684
S315080103A002F0B1FC4FF48051384602F0AEFC0A2047
S315080103B018E70B2E17D1DFF824794FF40051384688
S315080103C002F0A3FC4FF48051384602F09EFC4FF42C
S315080103D08051384602F097FC4FF48051384602F0B6
S315080103E094FC0B20FEE6DFF8F4784FF4005138460A
S315080103F002F089FC4FF48051384602F086FC4FF42E
S315080104008051384602F07FFC4FF48051384602F09D
S315080104107CFC0C20E6E60D2E7FF4CDAEDFF8BC7829
S315080104204FF40051384602F070FC4FF480513846BB
S3150801043002F06BFC4FF48051384602F064FC4FF42D
S315080104408051384602F061FC0D203EE6DFF88C78D3
S315080104504FF40051384602F056FC4FF480513846A5
S3150801046002F053FC4FF48051384602F04CFC4FF42D
S315080104708051384602F049FC0E20B3E60B2E7FF474
S315080104809AAE98E725242E70ADE62DE9F04F81B096
S31508010490054690469B46E81DB8F1000F05D0821027
S315080104A000EB52725205120E9044821000EB527004
S315080104B04005000E00EB010ADFF8209822E002F061
S315080104C024FCFF053F0E4FF48051484602F01DFCFF
S315080104D04FF40041484602F00FFC401E8041C043DC
S315080104E0C00FB0402043C4B24FF48051484602F0D1
S315080104F00AFC701CC6B2ADB24DB9B8F1000F01D0F5
S3150801050008F8014DC5B11AF8017D00240026082E08
S31508010510F3DA6D1EBBF1000F06D0ADB225B94FF463
S315080105200051484602F0EFFBF8074FF48041484670
S31508010530C5D502F0E8FBC4E701B0BDE8F08F2DE9A7
S31508010540FF4F83B0DDF844B0139EDDF850A02C2789
S31508010550002500249DF8481088421ABF0120019001
S315080105600194BDF81000A8BB2EB10120FFF75CFD70
S3150801057007462C2F01D03846C2E04FF47A70B6FBF5
S31508010580F0F4DFF858574FF48051284602F0BDFBC6
S315080105904FF48051284602F0B6FB4FF480512846A5
S315080105A002F0B3FB00A802F09FFF009802F096FF45
S315080105B0A042E0D24FF48051284602F0A6FB4FF440
S315080105C08051284602F09FFB4FF48051284602F0DD
S315080105D09CFBEAE79DF80C00FFF726FD07462C2F42
S315080105E0C9D1019BDBB2069A0599BDF81000FFF740
S315080105F04CFF1098D8B1BDF81000C01D811000EB52
S3150801060051704005000E0146481E79B180B2109A14
S31508010610825C069BC35CBBF1000F03D010F80B107C
S315080106200A400B409A42EED0012500E000250198C8
S31508010630002854D0DFF8A0060178491C01708DB155
S3150801064086B154450EDA0620FFF7EEFC07462C2F35
S3150801065091D10420FFF7E8FC07462C2F8BD106EB36
S31508010660A60607E09DF84800FFF7DEFC07462C2F93
S315080106707FF481AF9EB30120FFF7D6FC07462C2FE6
S315080106807FF479AF4FF47A70B6FBF0F8DFF84C9641
S315080106904FF48051484602F038FB4FF480514846E2
S315080106A002F031FB4FF48051484602F02EFB00A8B8
S315080106B002F01AFF0EE04FF48051484602F025FB7E
S315080106C04FF48051484602F01EFB4FF480514846CC
S315080106D002F01BFB009802F001FF4045EBD3002D09
S315080106E03FF449AF2046441CE4B25045FFF472AFCB
S315080106F0BAF1000F03D0A24501DA232000E0222037
S3150801070007B0BDE8F08F2420704730B581B00424C6
S3150801071002F028FD08B127243BE0DFF8C055402147
S31508010720284602F0E9FA60BB2046441E80B240B36F
S315080107304FF48051284602F0E8FA4FF480512846D2
S3150801074002F0E1FA4FF48051284602F0DEFA00A8D9
S3150801075002F0CAFE009802F0C1FE4FF4FA7188420F
S31508010760DBD24FF48051284602F0CFFA4FF480517C
S31508010770284602F0C8FA4FF48051284602F0C5FA15
S31508010780E8E74021284602F0B7FA002814BF2D24CD
S31508010790282402F069F8204601B030BD10B4DFF80C
S315080107A03815CA78F2B101F2340112F0030305D003
S315080107B010F8014B01F8014B5B1EF9D1920811D0D3
S315080107C010F8013B01F8013B10F8013B01F8013B28
S315080107D010F8013B01F8013B10F8013B01F8013B18
S315080107E0521EEDD12C2010BC704700B585B00246CB
S315080107F012F8011BC81D831000EB53704005000E4B
S31508010800292801D326200EE0DFF8CC04002304931F
S31508010810836803934078029000200190009000239A
S315080108200B20FFF78CFE05B000BD00B585B002466A
S3150801083012F8010B12F8011B41EA0021C81D8310A9
S3150801084000EB53704005000E292801D326200EE03F
S31508010850DFF88404002304938368039340780290A5
S3150801086000200190009000230B20FFF768FE05B0D9
S3150801087000BD00B585B0DFF860140A7904928A686C
S3150801088003928A78029201F13402019201F10C0273
S31508010890009201F15C030246C9880420FFF74FFE66
S315080108A005B000BDDFF830148A6812028A60037841
S315080108B01A438A6012028A6010F8013F1A438A6055
S315080108C08A6812028A6010F8013F1A438A608A68A8
S315080108D012028A6010F8013F43EA020088602C2060
S315080108E0704730B581B0044601F074FFDFF8E8536C
S315080108F000202871287001206870A8700020E880FF
S31508010900E870A860FFF790FB2078287102F0F0FBE9
S31508010910072002F0F2FB287902F0EFFB2B2001B049
S3150801092030BDDFF8B413CA881202CA8003781A43A5
S31508010930CA801202CA8010F8013F1A43CA80CA88BF
S315080109401202CA8010F8013F1A43CA80CA881202E5
S31508010950CA8010F8013F43EA0200C880C888C01D52
S31508010960821000EB5270C010C870C878292801D3CC
S31508010970262070472C207047F0B585B00025D64C47
S31508010980E3782BB304F20C0219460E1813F0030789
S3150801099006D016F801CB02F801CB6D1C7F1EF8D1E3
S315080109A09B0815D06E18365C02F8016B6D1C6E1823
S315080109B0365C02F8016B6D1C6E18365C02F8016B29
S315080109C06D1C6E18365C02F8016B6D1C5B1EE9D155
S315080109D021790491A1680391A178029104F1340166
S315080109E0019104F10C01009104F15C030246E188CE
S315080109F00420FFF7A4FD05B0F0BD10B50446042098
S31508010A00FFF712FB2C280AD1B348002300F15C0238
S31508010A102146C088FFF739FD0420FFF705FB10BD05
S31508010A2010B504460420FFF7FFFA2C280AD1AA4874
S31508010A30002300F15C022146C088FFF726FD042049
S31508010A40FFF7F2FA10BD30B581B004460420FFF76E
S31508010A50EBFA2C280DD1A04D012305F15C022146A4
S31508010A60E888FFF712FD2878401C2870A878FFF758
S31508010A70DBFA01B030BDF0B585B00025964CE378B8
S31508010A802BB304F20C0219460E1813F0030706D00D
S31508010A9016F801CB02F801CB6D1C7F1EF8D19B0815
S31508010AA015D06E18365C02F8016B6D1C6E18365C33
S31508010AB002F8016B6D1C6E18365C02F8016B6D1C31
S31508010AC06E18365C02F8016B6D1C5B1EE9D10021BC
S31508010AD004910391042102910021019104F10C0171
S31508010AE0009104F15C030246E1880420FFF727FD23
S31508010AF005B0F0BDF0B585B00025774CE3782BB38A
S31508010B0004F20C0219460E1813F0030706D016F85C
S31508010B1001CB02F801CB6D1C7F1EF8D19B0815D0BD
S31508010B206E18365C02F8016B6D1C6E18365C02F89D
S31508010B30016B6D1C6E18365C02F8016B6D1C6E1824
S31508010B40365C02F8016B6D1C5B1EE9D1002104912C
S31508010B500391042102910021019104F10C010091F4
S31508010B6004F15C030246E1880420FFF7E8FC05B0BE
S31508010B70F0BDF0B585B00025574CE3782BB304F2E8
S31508010B800C0219460E1813F0030706D016F801CB06
S31508010B9002F801CB6D1C7F1EF8D19B0815D06E1883
S31508010BA0365C02F8016B6D1C6E18365C02F8016B37
S31508010BB06D1C6E18365C02F8016B6D1C6E18365C7E
S31508010BC002F8016B6D1C5B1EE9D1002104910391AA
S31508010BD0A17802910021019104F10C01009104F11F
S31508010BE05C030246E1880420FFF7A9FC05B0F0BDC5
S31508010BF00078FFF719BA0078002803D0012803D036
S31508010C0025207047012000E00D20334948702C202B
S31508010C1070470078002803D0012803D025207047A3
S31508010C20012000E006202C4988702C20704710F816
S31508010C30011B0029FBD12C207047F0B581B0017842
S31508010C4010F8014F10F8012F10F8013F43EA02226C
S31508010C5010F8013F43EA022210F8013F43EA02264F
S31508010C601D4D2878884202D00846FFF7DDF94FF472
S31508010C707A70B6FBF0F6194F4FF48051384602F0F8
S31508010C8044F84FF48051384602F03DF84FF480514C
S31508010C90384602F03AF800A802F026FC0EE04FF4B6
S31508010CA08051384602F031F84FF48051384602F047
S31508010CB02AF84FF48051384602F027F8009802F0D6
S31508010CC00DFCB042EBD32878A04202D02046FFF7AC
S31508010CD0ABF92C2001B0F0BD9007002000140140AB
S31508010CE02DE9F0470026DFF85045DFF840A548B161
S31508010CF0534613F8015B04EB05152D79AD19AEB210
S31508010D00401EF6D1002588465AB108EB0A00401C58
S31508010D1010F8011B04EB011109794D19ADB2521EE8
S31508010D20F6D118F80A0004EB001007790020FFF73E
S31508010D307BF92C2877D10B20FFF776F92C2872D16D
S31508010D40DFF8EC944FF48041484601F0DCFF8EB1A0
S31508010D50761E4FF48051484601F0D7FF4FF4805173
S31508010D60484601F0D0FF4FF48051484601F0CDFFC7
S31508010D70002EEDD118F80A0004EB0010B0F808802F
S31508010D804FB32A4C7F1E5FEAC8704FF4804148462C
S31508010D9002D501F0B8FF01E001F0B7FF4FEA5808A4
S31508010DA047B93DB94FF40051484601F0ACFF2078E8
S31508010DB0401C20704FF48051484601F0A6FF4FF4BD
S31508010DC08051484601F09FFF4FF48051484601F093
S31508010DD09CFF002FD6D14FF48041484601F093FF7E
S31508010DE0DDB1124C6D1E07D14FF40051484601F092
S31508010DF08AFF2078401C20704FF48051484601F044
S31508010E0084FF4FF48051484601F07DFF4FF480512D
S31508010E10484601F07AFF002DE4D10420FFF704F9D2
S31508010E202C2800D10020BDE8F08700BF90070020DC
S31508010E30DFF8F81391F82C20824201D3002A02D157
S31508010E404FF0FF307047405C0001DFF8EC13405863
S31508010E507047DFF8D80390F82C0070472DE9F04F5A
S31508010E6081B0044601F0B6FC00202070FFF7DCF8DB
S31508010E7006462C2E54D10420FFF7D6F806462C2E0A
S31508010E804ED1DFF8C8800026DFF8A0B3DFF8A8A3A3
S31508010E90DFF89C9319E0401CC0B210310A684AB1C8
S31508010EA0CB682B409A42F6D1217801F80B002178BC
S31508010EB0491C2170010151F80A1031B932262178ED
S31508010EC001F80B002078401C2070002500275FEAF6
S31508010ED0C8704FF48041484602D501F014FF01E07D
S31508010EE001F013FF4FEA58084FF48051484601F0C4
S31508010EF00CFF4FF40041484601F0FEFE401E8041BA
S31508010F00C043C00FB84005434FF48051484601F02D
S31508010F10FAFE7F1C202FDADB15F1010F0DD13026E1
S31508010F200020FFF781F8C148217880F82C1001F0DC
S31508010F309BFC304601B0BDE8F08F0DB93126EFE7CD
S31508010F4002488542ECD000205146A7E7FF000F531F
S31508010F502DE9F047044601F03DFC0020FFF764F84F
S31508010F6007462C2F40F099800B20FFF75DF80746BE
S31508010F702C2F40F0928000250027DFF8B08298F8E0
S31508010F802C000028AC4A0AD017F8081002EB011108
S31508010F90097949198DB27F1C8742F5DB0DB93327CB
S31508010FA07BE0DFF88C924FF48041484601F0ABFEB6
S31508010FB04FF48051484601F0A8FE4FF48051484647
S31508010FC001F0A1FE4FF48051484601F09EFE6D1EC8
S31508010FD0EED10420FFF728F807462C2F5DD1002013
S31508010FE02070DFF850A25546002705E02078401CFE
S31508010FF020707F1C2A2F21DAE8074FF480414846E2
S3150801100002D501F080FE01E001F07FFE6D084FF484
S315080110108051484601F079FE4FF40041484601F0F7
S315080110206BFE461EB641F043C60F4FF48051484643
S3150801103001F069FE002ED9D045F000451F27E807C3
S315080110404FF48041484602D501F05DFE01E001F00A
S315080110505CFE6D084FF48051484601F056FE4FF488
S315080110600041484601F048FE08B145F000454FF4F5
S315080110708051484601F047FE7F1EE0D10020FEF769
S31508011080D3FF07462C2F08D1554588D198F82C004F
S315080110902178884214BF3327002701F0E5FB38463B
S315080110A0BDE8F0872DE9F04701F094FB0020FEF733
S315080110B0BBFF04462C2C4AD10B20FEF7B5FF04468C
S315080110C02C2C44D15A4C4FF48041204601F01BFE8A
S315080110D00025DFF864A1DFF8548100E06D1C98F85B
S315080110E02C0085422CDA15F808000AEB001007795E
S315080110F00026B146012F1ADB4FF48051204601F034
S3150801110004FE4FF40041204601F0F6FD401E8041E1
S31508011110C043C00F00FA09F03043C6B24FF48051FC
S31508011120204601F0F0FD09F10109B945E4DB06F0B5
S3150801113003000128D2D00020FEF776FF342406E00A
S315080111400020FEF771FF04462C2C00D1002401F083
S315080111508BFB2046BDE8F0872DE9F04F81B001F001
S3150801116039FBDFF8C8A09AF82C0008B9362557E0EC
S315080111700020FEF759FF05462C2D51D1002657466A
S31508011180DFF8AC80DFF8AC90DFF8ACB002E0761C93
S31508011190F6B27F1C9AF82C0086423ADA801BFF3099
S315080111A0C4B2224631463046FFF79AFD0546BDBB15
S315080111B0301939780BEB0111C988081810F1200488
S315080111C04D46E4D0641EE8074FF48041404602D5F7
S315080111D001F099FD01E001F098FD6D084FF4805189
S315080111E0404601F092FD4FF40041404601F084FD6E
S315080111F008B145F000454FF48051404601F083FDA2
S31508011200002CDFD14D45C2D00020FEF70DFF352554
S3150801121006E00020FEF708FF05462C2D00D1002523
S3150801122001F022FB284601B0BDE8F08F1408002022
S31508011230001401404118E77D182D010810B54FF03B
S315080112400060D0F8001111F1010F01D1002010BD85
S31508011250DFF8A4442146202250F8043B41F8043B18
S3150801126050F8043B41F8043B50F8043B41F8043B71
S3150801127050F8043B41F8043B521EEDD1204610219B
S315080112800268D0F800310360C0F800214268D0F83E
S3150801129004314360C0F804218268D0F808318360BC
S315080112A0C0F80821C268D0F80C31C360C0F80C2117
S315080112B01030491EE4D102F060F801214FF00060B8
S315080112C001F01EFB10B902F063F8BFE74FF4007294
S315080112D021464FF0006001F051FB0028F3D002F0DF
S315080112E057F800F08FFC10B9042000F023FE01F036
S315080112F027FE012010BD00B581B002F03EF800F0CE
S31508011300FDF918B902F044F8002009E03D214FF033
S31508011310082001F0F5FA0028F4D002F039F8012086
S3150801132001B000BDF0B589B005462878532801D02B
S3150801133010206BE0A878D030C0B20A2800D3F93063
S31508011340E978D031C9B20A2900D3F93101EB001481
S31508011350E4B2002002226100091D032917DBAB1C38
S315080113601E78D036F6B20A2E00D3F9365F78D03712
S31508011370FFB20A2F00D3F93700EB06103818C0B2AE
S31508011380921CD2B29B1C8A42EADBFF2801D01420A8
S315080113903CE06878302808D0332839D0372800F05F
S315080113A03D81392800F02281C2E7287AD030C0B2BF
S315080113B00A2800D3F9300006000DCF4CA4F8000224
S315080113C0697AD031C9B20A2900D3F931C9B20843B9
S315080113D0A4F80002A97AD031C9B20A2900D3F93191
S315080113E0C9B240EA0130A4F80002E97AD031C9B29B
S315080113F00A2900D3F931C9B240EA0120A4F800024A
S3150801140001F076FE4020A4F80202192009B0F0BDC9
S31508011410C9B2284601F088FE2879D030C0B20A2818
S3150801142000D3F9306979D031C9B20A2900D3F93123
S31508011430C0B2C9B2090641EA0070A979D031C9B268
S315080114400A2900D3F931EA79D032D2B20A2A00D36D
S31508011450F932C9B21206120A42EA01510843297A37
S31508011460D031C9B20A2900D3F9316A7AD032D2B257
S315080114700A2A00D3F932C9B21206120C42EA01311C
S315080114800843A97AD031C9B20A2900D3F931EA7ACF
S31508011490D032D2B20A2A00D3F932C9B2D2B242EA5A
S315080114A0011141EA0006FB34E4B29148864275D23D
S315080114B00020611004EB91718910B4EB81016BD1A5
S315080114C061000129A1DB05F20C028B4C137803F1AB
S315080114D0D006F6B20A2E00D3F936B4F802321D4602
S315080114E03606360D44F825605678D036F6B20A2EF9
S315080114F000D3F93654F82570F6B23E4344F8256010
S315080115009778D037FFB20A2F00D3F937FFB246EAE8
S31508011510073644F82560D778D037FFB20A2F00D3AB
S31508011520F937FFB246EA072644F825601779D03716
S31508011530FFB20A2F00D3F937FFB246EA075644F835
S3150801154025605779D037FFB20A2F00D3F937FFB292
S3150801155046EA074644F825609779D037FFB20A2F3D
S3150801156000D3F937FFB246EA077644F82560D779FA
S31508011570D037FFB20A2F00D3F937FFB246EA07661A
S3150801158044F825605B1CA4F802320830C0B2083260
S315080115908842BFF63AAF99E7172037E7012C16DBE1
S315080115A005F20C0000A922460378D033DBB20A2BD8
S315080115B000D3F9334578D035EDB20A2D00D3F93584
S315080115C005EB031301F8013B801C521EECD101F017
S315080115D0D4FE224600A9304601F0D0F918B901F027
S315080115E0D7FE112012E701F0D3FE0EE741484FF46A
S315080115F0807202F10062102352F8044B40F8044B42
S3150801160052F8044B40F8044B52F8044B40F8044B8B
S3150801161052F8044B40F8044B5B1EEDD1C9B228467B
S3150801162001F082FD01F09EFD334CB4F800128842A8
S315080116307FF4ADAE01F0A1FE20464FF00061102205
S3150801164051F8043B40F8043B51F8043B40F8043B8D
S3150801165051F8043B40F8043B51F8043B40F8043B7D
S31508011660521EEDD1D4F8000110F1010F03D101F09A
S315080116708FFE1820CAE6204610210268D0F80031EC
S315080116800360C0F800214268D0F804314360C0F80D
S3150801169004218268D0F808318360C0F80821C2683D
S315080116A0D0F80C31C360C0F80C211030491EE4D1C2
S315080116B001F063FE01214FF0006001F021F910B934
S315080116C001F066FE8BE74FF4007221464FF0006089
S315080116D001F054F90028F3D001F05AFE042000F075
S315080116E029FC01F02DFC01F053FE1A208EE600BFFD
S315080116F000040008000500200004002000B5C1B060
S3150801170000A84FF00061102251F8043B40F8043B51
S3150801171051F8043B40F8043B51F8043B40F8043BBC
S3150801172051F8043B40F8043B521EEDD101F025FE69
S3150801173001214FF0006001F0E3F818B901F028FE25
S3150801174000200BE04FF4807200A94FF0006001F011
S3150801175015F90028F2D001F01BFE012041B000BDA9
S3150801176030B581B0DFF8B44400202071207207201B
S315080117702070FF2060710020E0700D20607001F07C
S31508011780DDF9451C01F01BFA400040EA452048F204
S3150801179080010843A08101B030BD000010B5DFF813
S315080117A07C44A0790D2801D30020A071A079E179A4
S315080117B0814202D001212172E071044951F82000C9
S315080117C08047A0710020207210BD00BFE4330108D4
S315080117D000B581B00A2000F0A2FA00A800F047FB84
S315080117E0012800D0002001B000BD30B581B00A2023
S315080117F000F095FA01F0A2F9DFF82044451C01F042
S31508011800DEF9400040EA452048F280010843A081FC
S3150801181000A800F02CFB18B1022807D006D307E070
S315080118209DF800000002E081022006E0012004E0A4
S315080118300820607105202070002001B030BD10B568
S3150801184082B00A2000F06BFA00A800F010FB18B16C
S3150801185002280FD00CD314E0DFF8C003C1899DF824
S3150801186000201143C181828991420ED1042030E0C2
S3150801187001202EE0DFF8A403092141710521017039
S3150801188026E0DFF898030821F7E783895B1C99426C
S3150801189001D103201DE0C07810F03F030AD048F2B9
S315080118A0805444EA430300060ED59942DED0581CFB
S315080118B08142EED048F28000814207D048F2810089
S315080118C00140814204D1D3E79942F3D1062000E0D1
S315080118D0002002B010BD10B5DFF840432078042877
S315080118E005D1207918B108202070002020712078B0
S315080118F000F0F3FA2078401F032801D8042020704D
S31508011900012010BD00B581B00A2000F008FA00A830
S3150801191000F0ADFA18B1022815D012D315E09DF8DA
S315080119200000012814D0022816D0032812D009284D
S3150801193017D0BA480021417105210170002001B074
S3150801194000BD0120FBE70420F9E7B4480821F2E7C6
S315080119500520F4E70C20F2E7B0480421417007207E
S31508011960EDE70A20EBE710B582B00A2000F0D7F9B7
S3150801197000A800F07CFA18B1022811D00ED316E09F
S31508011980A64C9DF80000400614D49DF80000E070AE
S31508011990042000F0A2FA042002B010BD0120FBE7E2
S315080119A09E4C09206071052020700020F4E79B4CAD
S315080119B00820F7E7052000F090FA1620F2E700B5AF
S315080119C081B00A2000F0ABF900A800F050FA18B16E
S315080119D002280CD009D30CE090489DF80010022982
S315080119E00AD10621417007200BE0012009E00620F3
S315080119F007E08A48082100E00021417105210170AC
S31508011A00002001B000BD10B50A2000F088F9834C0A
S31508011A1004F10B0000F02BFA002803D002280AD0A3
S31508011A2007D30AE0E07A607220740120A0720820C8
S31508011A3010BD012010BD092003E0052000F04DFA74
S31508011A400820607105202070002010BD00B581B006
S31508011A500A2000F064F900A800F009FA18B1022872
S31508011A6017D014D31FE06D48417A9DF8002051180C
S31508011A704172817A0A189DF800301374491C8172E3
S31508011A80C17AFF31C172C9B299B9092012E00120A0
S31508011A9010E0624809214171052101705748006823
S31508011AA08047002006E0052000F017FA5B48082168
S31508011AB0F1E7082001B000BD10B582B00A2000F098
S31508011AC02EF900A800F0D3F918B1022818D015D3B9
S31508011AD019E0524C9DF80000617AC943491CC9B204
S31508011AE0884217D0052000F0F8F90A206071052010
S31508011AF0207042480068804700201AE0012018E05B
S31508011B00464C0920F2E7052000F0E7F9434C082086
S31508011B106071ECE7084800688047012803D1052071
S31508011B2000F0DBF9E3E76078042801D100F0D5F984
S31508011B30607802B010BD00BF2C35010830B581B000
S31508011B40364C154800688047012803D105202070C6
S31508011B5000201EE0022000F0C0F900206072002576
S31508011B60207C401C01280BDB2819007C617A41186E
S31508011B70617200F0B2F96D1C207C401C8542F3DBD2
S31508011B80607AC043401CC0B200F0A7F91E20A070BD
S31508011B900B2001B030BD00BF3035010810B582B049
S31508011BA01E4C207A10B10A2000F0B9F8A07800F18D
S31508011BB0FF01A17028B90920607105202070002055
S31508011BC01AE000A800F053F918B102280BD008D37F
S31508011BD00BE09DF80000042809D005280BD0002049
S31508011BE0EAE7012008E00B2006E00820E4E7207078
S31508011BF0024800688047042002B010BD3435010848
S31508011C000D20704705488179092904D140780628AD
S31508011C1001D10120704700207047000064080020A8
S31508011C2070B588B001214FF4804000F009FD2520E8
S31508011C308DF8040000208DF805008DF806000120B6
S31508011C408DF8070001A801F027F94FF40074ADF8E3
S31508011C50004003208DF8020018208DF80300C64DB8
S31508011C6000A9284600F0E8FF4FF48066ADF8006049
S31508011C7004208DF8030000A9284600F0DDFF4FF483
S31508011C800060ADF8000003208DF8020010208DF8E1
S31508011C90030000A9284600F0CFFF00224FF4006197
S31508011CA0284601F034F84FF4E13002904FF48050A1
S31508011CB0ADF80C000020ADF80E00ADF81060ADF8D7
S31508011CC012000C20ADF814000020ADF81600ADF88E
S31508011CD01800ADF81A40ADF81C00A84C02A9204618
S31508011CE000F0D2FC92486421C0F88811002180F8DE
S31508011CF0011180F8021180F8001180F8041180F8AA
S31508011D00051180F80311012240F22551204600F001
S31508011D100BFD0121204600F0FDFC08B070BD844989
S31508011D20C1F888017047F0B581B0944C40F2255648
S31508011D303146204600F025FD002849D07C4D95F80E
S31508011D40050105EB4000002141700221204600F003
S31508011D500CFD48B10221204600F00EFD95F805015B
S31508011D6005EB4000012117E00821204600F0FDFCA3
S31508011D7048B90421204600F0F8FC20B90121204683
S31508011D8000F0F3FC48B10D21204600F0F5FC95F86A
S31508011D90050105EB40000321417095F805712046C0
S31508011DA000F0DFFC05F8170095F80501401C85F8D9
S31508011DB00501C0B2802802D1002085F8050195F8F1
S31508011DC00301401C85F803013146204600F0F8FC62
S31508011DD040F227763146204600F0D3FC58B3544DDD
S31508011DE095F80001C0B195F80201401990F808115B
S31508011DF0204600F0B2FC95F80201401C85F8020164
S31508011E00C0B2802802D1002085F8020195F80001A8
S31508011E10FF3085F800010AE000223146204600F02D
S31508011E2083FC012240F22661204600F07DFC314602
S31508011E30204600F0C5FC40F226652946204600F0FA
S31508011E40A0FC90B13A4890F8000150B90022294601
S31508011E50204600F069FC00224FF40061464800F074
S31508011E6056FF2946204600F0ABFC01B0F0BD70B51F
S31508011E7005462F4C94F8030178B901F008F806468F
S31508011E8001F005F8D4F88811801B814201D202209D
S31508011E9070BD94F803010028F2D001F06EFA94F8A7
S31508011EA0040114F81000287094F8040104EB4000AA
S31508011EB0457894F80401401C84F80401C0B28028CE
S31508011EC002D1002084F8040194F80301FF3084F854
S31508011ED0030101F05DFA284670BD10B504460122DA
S31508011EE04FF40061244800F012FF01F046FA104849
S31508011EF090F80111091881F8084190F80111491C57
S31508011F0080F80111C9B2802902D1002180F8011196
S31508011F1090F80011491C80F80011012240F227713E
S31508011F20164800F001FCBDE8104001F031BA000086
S31508011F300406002070B504460F4D01224FF40061D6
S31508011F40284600F0E4FE0D4E8021304600F00DFCD7
S31508011F500028F9D02146304600F0FFFB40213046E3
S31508011F6000F003FC0028F9D000224FF4006128464E
S31508011F70BDE8704000F0CBBE0008014000380140C2
S31508011F8009490A6802F038020A600A6810430860BB
S31508011F90704705490A6822F010020A600A68104368
S31508011FA00860704700000000002002400348DFF87F
S31508011FB05C120160DFF85812016070470420024084
S31508011FC030B481B0014640F6FF721446DFF8383264
S31508011FD01868C00704D5012000250095FF250DE0E6
S31508011FE01868400701D5022021E01868C00601D506
S31508011FF003201CE004201AE0009D6D1E0095009D3B
S31508012000002DF9D11D68ED0709D41868400701D5D7
S31508012010022004E01868C0064CBF03200420641E91
S31508012020012802D1002CD7D100E004B905200428E3
S315080120303ED1586840F0020058609960586840F0EF
S31508012040400058601868C00704D501200021009196
S31508012050FF210DE01868400701D5022021E0186824
S31508012060C00601D503201CE004201AE00099491E88
S31508012070009100990029F9D11968C90709D4186886
S31508012080400701D5022004E01868C0064CBF0320AA
S315080120900420521E012802D1002AD7D100E002B934
S315080120A00520012804D0596841F6FD72114059608E
S315080120B001B030BC704730B481B002460F24524B90
S315080120C01868C00704D5012000250095FF250DE0F5
S315080120D01868400701D5022021E01868C00601D515
S315080120E003201CE004201AE0009D6D1E0095009D4A
S315080120F0002DF9D11D68ED0709D41868400701D5E7
S31508012100022004E01868C0064CBF03200420641EA0
S31508012110012802D1002CD7D100E004B905200428F2
S315080121206FD1586840F00100586011800F24186873
S31508012130C00704D5012000250095FF250DE0186884
S31508012140400701D5022021E01868C00601D5032001
S315080121501CE004201AE0009D6D1E0095009D002DCF
S31508012160F9D11D68ED0709D41868400701D5022081
S3150801217004E01868C0064CBF03200420641E012829
S3150801218002D1002CD7D100E004B90520042831D1A9
S31508012190080C50800F211868C00704D501200022B9
S315080121A00092FF220DE01868400701D5022021E0C0
S315080121B01868C00601D503201CE004201AE0009A1D
S315080121C0521E0092009A002AF9D11A68D20709D438
S315080121D01868400701D5022004E01868C0064CBFFC
S315080121E003200420491E012802D10029D7D100E085
S315080121F001B90520012804D0596841F6FE7211403B
S31508012200596001B030BC70470C2002402301674574
S31508012210AB89EFCD01490860704700BF0C20024029
S3150801222010B59B4C6078A6281BD0A72808D0A828EB
S315080122301AD0A92820D0AD2852D0AF284DD062E0B7
S31508012240FFF759F8002804D14C48112101700120E3
S3150801225010BD4B48017841F0020101702B4801215C
S3150801226001700020607010BDA01CFFF75BF81928EB
S31508012270F7D042490870EAE7207800F1FF01C9B2B0
S31508012280A01CFDF7BDFE2B2804D02C280CD02D2828
S315080122900DD015E045F2555001F088F840F6C41006
S315080122A001F08EF801F092F800206070D9E7FEF788
S315080122B0C5FF0028F8D131482A210170012010BD37
S315080122C02E49087045F2555001F070F840F2712018
S315080122D001F076F801F07AF8B9E7BDE8104057E061
S315080122E060706D480178A1704078E070694801888E
S315080122F00A0A227161714088010AA171E0710720F9
S315080123002070002010BD1D4804219FE768080020A1
S3150801231010B55F4C607858BBA52060705E4801789F
S31508012320A1704178E1708078207112480178617155
S315080123304178A1718078E071104801782172FF21F6
S31508012340017040210C4800F0D7FC401E8041C04373
S31508012350C00F0B490A7801280CBF02F0FE0042F0B3
S3150801236001000870087860720020A0720A202070A7
S31508012370002010BDFCFF0008001401406908002078
S315080123806208002042480021417000207047000081
S3150801239010B582B03E4CA078801E072874D8DFE8B5
S315080123A000F0040F73212F4957643B490878A07040
S315080123B04878E0700320207188786071052062E012
S315080123C035490878A0704878E070032020713148B3
S315080123D001880A0A6271A1714088010AE1712072B5
S315080123E0082050E02C490878A0704878E07005204C
S315080123F0207100A8FEF732FD60719DF8000040E0EB
S31508012400E0788DF80000FEF713FD23490A78A270DB
S315080124104978E17006212171002161719DF800104A
S31508012420A171010EE171010C2172010A6172A0729A
S315080124300A2028E018490878A0704878E070072033
S31508012440207100A8FEF784FD60719DF8000018E070
S3150801245011490878A0704878E07008202071FEF7C5
S3150801246021FE6071FEF7F5FC0BE00B490878A070B8
S315080124704878E07009202071FEF76EFE6071FEF75C
S31508012480E8FCA07106202070002002B010BD0000F3
S3150801249074080020F8FF0108FCFF010879480021AB
S315080124A0C16001611421416100218161C161016835
S315080124B041F0010101604168084A11404160016823
S315080124C0074A11400160016821F4802101604168D1
S315080124D021F4FE0141600021816070470000FFF888
S315080124E0FFFFF6FE67490A6822F480320A600A6825
S315080124F022F480220A60B0F5803F03D0B0F5802F20
S3150801250004D07047086840F4803002E0086840F457
S31508012510A0200860704700000C485A490A6802F46E
S315080125200032521E9241D243D20F02704268521CA7
S315080125304260027812B94268FF2AEFD1086800F4AE
S315080125400030401E8041C043C00F7047500800202C
S315080125503A4A136823F47C131843084310607047FA
S3150801256001490860704700BF6000424233490A6862
S31508012570920892001043086070473048006800F0DE
S315080125800C0070472D490A6822F0F00210430860D2
S3150801259070472A490A6822F4E062104308607047C6
S315080125A026490A6822F4605242EAC0000860704768
S315080125B010B422490A6802F00C02082A01D01C4A02
S315080125C00FE00A6802F47012920C921C0B68DB0386
S315080125D001D4184B04E00B689B034CBF154B144BF5
S315080125E05A4302600B68144A046803F0F0031B0996
S315080125F09B5C24FA03F343600C6804F4E064240A40
S31508012600A45CE34083600B68446803F46053DB0A07
S315080126109B5C24FA03F3C360096801F4404102EBA9
S315080126209131097CB3FBF1F1016110BC704700BF20
S3150801263000127A0000093D00F43401080410024032
S31508012640044A0029116814BF084321EA00001060F2
S31508012650704700BF1810024041090A4A012901D1F1
S31508012660116803E002290CBF116A516A012200F0C0
S315080126701F0002FA00F00840401E8041C043C00F07
S31508012680704700000010024030B585B005460C467B
S31508012690288A4CF2FF010840E1880843E18908438A
S315080126A0218A0843618A0843A18A08432882A8899E
S315080126B04EF6F3110840A188084321890843A189E8
S315080126C00843A881A88A4FF6FF4108406189084353
S315080126D0A88200A8FFF76CFF0D4885420CBF039836
S315080126E002981921484321688900B0FBF1F0642159
S315080126F0B0FBF1F21201130901FB1300000132309C
S31508012700B0FBF1F000F00F001043288105B030BD91
S31508012710003801400029818912BF41F400514DF664
S31508012720FF7211408181704710B40B065B0F0124BB
S3150801273001F01F0104FA01F1012B01D10C3003E06C
S31508012740022B0CBF10301430002A026814BF114343
S3150801275022EA0101016010BC7047C905C90D8180D3
S3150801276070478088C005C00D704700880140481E23
S315080127708041C043C00F7047028822EA01010180E7
S31508012780704710B40A06520F012301F01F0403FA19
S3150801279004F4012A01D1828903E0022A0CBF028AC4
S315080127A0828A2240090A03FA01F10088084022B107
S315080127B0401E8041C043C00F00E0002010BC704796
S315080127C002880123090A03FA01F122EA01010180BB
S315080127D07047000010B582B04FF48050ADF8000084
S315080127E003208DF8020010208DF80300434C00A940
S315080127F0204600F021FA4FF40050ADF800000320FE
S315080128008DF8020010208DF8030000A9204600F07B
S3150801281013FA4FF48040ADF8000003208DF802004A
S3150801282010208DF8030000A9204600F005FA4FF4A0
S315080128300040ADF8000003208DF8020004208DF851
S31508012840030000A9204600F0F7F94020ADF8000082
S3150801285003208DF8020004208DF8030000A9204604
S3150801286000F0EAF902B010BD10B582B04FF48050FD
S31508012870ADF8000003208DF8020004208DF803004E
S315080128801E4C00A9204600F0D7F94FF40050ADF8C8
S31508012890000003208DF8020004208DF8030000A92A
S315080128A0204600F0C9F94FF48040ADF80000032036
S315080128B08DF8020004208DF8030000A9204600F0D7
S315080128C0BBF94FF40040ADF8000003208DF8020073
S315080128D004208DF8030000A9204600F0ADF9402038
S315080128E0ADF8000003208DF8020004208DF80300DE
S315080128F000A9204600F0A0F902B010BD001401405D
S31508012900F0B581B005460C4600F037FDFFF74EFBE2
S315080129103520FFF77FFC04208DF8000045F2555657
S31508012920304600F043FD40F2E24000F049FD00F078
S315080129304DFD00277CB19DF8000004280BD12846DF
S31508012940FFF73EFB8DF8000000F040FD7F1C05F502
S315080129508065A742EFD3304600F028FD40F271208A
S3150801296000F02EFD00F032FD00F012FD9DF800008A
S3150801297004280CBF0120002001B0F0BD2DE9F04D5F
S3150801298081B002B49346054600F0F7FC00260127FC
S31508012990042445F2555000F009FD40F2E24000F0EA
S315080129A00FFD00F013FD4FF0FF0826E04FF0FF3A48
S315080129B000200099711800225E4511DA08FA02F31F
S315080129C02AEA030311F8014B4FEAC00C04FA0CF486
S315080129D044EA030A761CB6B2401C08320428EBDB2B
S315080129E051462846FFF767FB044600F0EFFC042C26
S315080129F00BD12868504508D12D1D5E4506DA042CF1
S31508012A0004D1286810F1010FD0D0002745F255509E
S31508012A1000F0CCFC40F2712000F0D2FC00F0D6FCAC
S31508012A2000F0B6FC384602B0BDE8F08D2DE9F04F4E
S31508012A3081B000F0D7FA00F099FC00F017FB00F01E
S31508012A4097FB00F0C9F9FFF7EBF8FEF789FE00F0EE
S31508012A50E3FC00224FF480512E4800F058F92E4C21
S31508012A6000224FF48061204600F051F901224FF40B
S31508012A700071204600F04BF900224021204600F063
S31508012A8046F9DFF898B0264C264D274E274FDFF832
S31508012A90A080DFF8A090DFF8A0A002E000208AF865
S31508012AA00000FEF77BFE9AF800000128F6D099F897
S31508012AB00000012803D1002089F80000F1E798F801
S31508012AC00000012805D1002088F8000000F07EFCEE
S31508012AD0E7E73878012802D100203870E1E7307835
S31508012AE0012802D100203070DBE72878012802D1BD
S31508012AF000202870D5E72078012802D1002020700F
S31508012B00CFE79BF800000128CBD100208BF8000005
S31508012B10C7E700BF00080140001001404408002033
S31508012B2045080020460800204708002048080020DC
S31508012B30490800204A0800204B08002010B582B039
S31508012B4000208DF800003B4C0121204600F0D4F806
S31508012B5028B99DF8000040F001008DF80000022117
S31508012B60204600F0C9F828B99DF8000040F0020097
S31508012B708DF800000421204600F0BEF828B99DF81A
S31508012B80000040F004008DF800000821204600F0FE
S31508012B90B3F828B99DF8000040F008008DF8000048
S31508012BA01021204600F0A8F828B99DF8000040F049
S31508012BB010008DF800009DF8000002B010BD10B598
S31508012BC082B000208DF800001A4C4FF4807120461F
S31508012BD000F092F828B99DF8000040F001008DF840
S31508012BE000004FF40071204600F086F828B99DF8D8
S31508012BF0000040F002008DF800004FF48061204685
S31508012C0000F07AF828B99DF8000040F004008DF824
S31508012C1000004FF40061204600F06EF828B99DF8CF
S31508012C20000040F008008DF800009DF8000002B091
S31508012C3010BD0000001401402DE9F041CB7803F0E6
S31508012C400F02DB0601D58B781A430B88DCB22CB34D
S31508012C50D0F800C0002401250F2605FA04F707EA73
S31508012C600308B84515D14FEA840E06FA0EF82CEA80
S31508012C70080C02FA0EFE4EEA0C0C91F803E0BEF1BE
S31508012C80280F00D1476191F803E0BEF1480F00D142
S31508012C900761641C082CE0D3C0F800C04FF48074A7
S31508012CA0A34227D3D0F804C0002401250F2604F136
S31508012CB0080705FA07F707EA0308B84515D14FEAE1
S31508012CC0840E06FA0EF82CEA080C02FA0EFE4EEAF3
S31508012CD00C0C91F803E0BEF1280F00D1476191F879
S31508012CE003E0BEF1480F00D10761641C082CDED34E
S31508012CF0C0F804C0BDE8F08180680140481E8041E3
S31508012D00C043C00F70470161704741617047002A8F
S31508012D1014BF01614161704793400205080019001B
S31508012D2001000000FFFFFE0F934060090800D8006C
S31508012D3001000000FFFFFF0F9380610005006E038D
S31508012D4001000000FFFFFF0F93500405080019005A
S31508012D5001000000FFFFFF0F93600405080019003A
S31508012D6001000000FFFFFF0F938060090800B00112
S31508012D7001000000FFFFFF0F9300610005004E02EE
S31508012D8001000000FFFFFF0F93C0410106002F035A
S31508012D9001000000FFFFFF0F93E0A6020A00F104FD
S31508012DA0C1030000FFFFFF0F9360A9020A00E506B1
S31508012DB0C1030000FFFFFF0F9380050510002000E7
S31508012DC001000000FFFFFF0F0000000000000000E7
S31508012DD0000000000000000000B581B000F014F802
S31508012DE02C48002181606FF0040000F093FA42F24A
S31508012DF0283000F099FA012000F0ABFA012001B061
S31508012E005DF804EB00F096BA22488168491C816096
S31508012E1081680722114201D10121017081680F22BF
S31508012E20114201D10121417081681F22114201D14C
S31508012E300121817081683F22114201D10121C170AE
S31508012E4081687D22B1FBF2F302FB131109B9012155
S31508012E5001718168FA22B1FBF2F302FB131109B978
S31508012E600121417181684FF4FA72B1FBF2F302FB59
S31508012E70131109B90121817181684FF47A72B1FB85
S31508012E80F2F302FB131109B90121C1717047014817
S31508012E9080687047440800202DE9F0410578012132
S31508012EA0C2787AB3294A126802F4E062C2F5E0628E
S31508012EB0120AAB10DFF8648058F8237005F0030591
S31508012EC0ED00FF26AE40B7434478C2F1040E04FA7A
S31508012ED00EFC90F802E00F2424FA02F202EA0E022E
S31508012EE042EA0C021201AA4032403A4348F823202A
S31508012EF000784211084B00F01F0001FA00F043F870
S31508012F00220006E06811064A05F01F03994042F8B7
S31508012F102010BDE8F08100BF00E100E000E400E018
S31508012F2080E100E000F081B900F081B9024A114060
S31508012F30084302490860704780FFFF1F08ED00E05B
S31508012F4002480149016070470100FA050CED00E0ED
S31508012F50F0B500F10801026801EBC202406802EB14
S31508012F60C000002300241D4601260CE013F8017B4E
S31508012F70F44506D00CF8017B6D1C2DB2002DF7D453
S31508012F800126F44509D1824200D1F0BD52F804CB9D
S31508012F9052F8047B07EB0C0EF3E7A34206D151F86E
S31508012FA0043B51F8044BE418A342F8D05EB113F977
S31508012FB0015B0026A34206D151F8043B51F8044BA4
S31508012FC0E418A342F8D0002DD0D4002DD8D4F44566
S31508012FD0D7D0A342D5D013F8017B0CF8017B6D1E1F
S31508012FE02DB2F2E700B581B0FFF758FA4FF48030F9
S31508012FF0FFF778FAFFF790FA012824D11020FEF797
S31508013000C8FF0220FEF7BCFF0020FFF7BBFA00202D
S31508013010FFF7C6FA4FF48060FFF7BBFA4FF4E011E9
S315080130204FF48030FFF794FA0120FFF799FA392017
S31508013030FFF712FB0028FAD00220FFF797FAFFF7ED
S315080130409CFA0828FBD101210420FFF7F9FA01218E
S315080130500820FFF7F5FA01211020FFF7F1FA0121FF
S31508013060202001B05DF804EBFFF7EABA10B582B08B
S315080130704FF6FF70ADF8000003208DF8020004201A
S315080130808DF8030000A91648FFF7D6FD00A91548D3
S31508013090FFF7D2FD00A91448FFF7CEFD134C00A98E
S315080130A02046FFF7C9FD4FF47060ADF80000032014
S315080130B08DF8020004208DF8030000A92046FFF7C9
S315080130C0BBFD1F20ADF8000003208DF80200042087
S315080130D08DF8030000A92046FFF7AEFD02B010BD2A
S315080130E000080140000C0140001001400014014095
S315080130F01E484FF6FF710180704770B41B490A8854
S31508013100082348F20844550800F0010602F00102B6
S3150801311096EA020F14BF84EA05022A4640085B1E96
S31508013120F1D10A8070BC7047F0B4C9B148F20842BF
S315080131300E4BFF3104781D8808266F0804F0010C30
S3150801314005F001059CEA050F14BF82EA07053D460D
S315080131506408761EF1D11D80401CC9B20029E8D148
S31508013160F0BC7047014800887047000060080020DD
S3150801317010B582B04FF48050ADF8000003208DF8E9
S31508013180020010208DF8030000A91348FFF754FD2B
S315080131904FF4E060ADF8000003208DF8020010201E
S315080131A08DF803000D4C00A92046FFF745FD402088
S315080131B0ADF8000003208DF8020010208DF80300F9
S315080131C000A92046FFF738FD00224FF480712046FA
S315080131D0FFF79DFD02B010BD000801400010014037
S315080131E030BF704720BF704740BF7047BFF36F8F2E
S315080131F07047BFF34F8F7047BFF35F8F704701DF8B
S315080132007047EFF31480704780F31488BFF36F8F0C
S315080132107047EFF30980704780F309887047EFF329
S315080132200880704780F30888704772B6704762B69F
S31508013230704771B6704761B6704780F31188704759
S31508013240EFF31280704740BA704700BA704770476B
S31508013250FEE7FEE7FEE7FEE77047704770477047EF
S315080132607047704770477047704770477047704797
S315080132707047704770477047704770477047704787
S315080132807047704770477047704770477047704777
S315080132907047704770477047704770477047704767
S315080132A07047704770477047704770477047704757
S315080132B0704700000B0701089D070108EB07010885
S315080132C073080108A5080108070701080707010887
S315080132D0E308010823090108790901080707010814
S315080132E007070108FB090108210A0108470A01081D
S315080132F0770A0108F50A0108730B0108F10B0108A1
S31508013300F70B0108130C01082B0801082F0C0108FB
S315080133103B0C01081449042808680CBF40F0040056
S3150801332020F004000860704701490860704700BF33
S3150801333014E000E00C49002801D188607047012893
S31508013340086802D140F0010001E040084000086029
S31508013350704705490028086814BF40F0020020F0AC
S31508013360020008607047000010E000E00E480021E6
S3150801337001604FF00060FFF7D9BD00B581B00A487A
S3150801338001684A1C026009B9FFF7CCFD01B000BD0E
S3150801339000B581B00448016821B1491E016001D117
S315080133A0FFF7C2FD01B000BD580800200C490860AE
S315080133B07047000001490860704700BF04300040AB
S315080133C001490860704700BF0830004004484AF6C2
S315080133D0AA210160704702484CF6CC41016070474A
S315080133E000300040D1170108EB1701083F18010802
S315080133F0D71801080519010867190108BF19010835
S31508013400071A01084D1A0108B91A01083D1B0108D6
S315080134109D1B0108011C010800B581B045F25550F4
S31508013420FFF7C4FF0320FFF7C5FF40F27120FFF73E
S31508013430C7FFFFF7CBFF01B05DF804EBFFF7CBBF82
S31508013440A9340108640400000004002000000000FB
S31508013450512F010801000000010000003C35010858
S315080134600D000000640800201001000010B5054891
S31508013470054CA04204D050F8041B8847A042FAD153
S3150801348010BD00BF403401086C34010800B5054A77
S315080134901068002804D011000220ABBE002010607D
S315080134A000BD00005C080020002305E050F8041B5D
S315080134B041F8043B121FFBD150F8042B002AF5D121
S315080134C07047000000F038F8002801D0FFF7CEFF5A
S315080134D00020FFF7ABFA00F026F8000010B5044605
S315080134E0FFF7D5FC001B10BD10B50446FFF7CFFC4E
S315080134F0206010BD0000000001020304010203045C
S31508013500060708090204060880B5FFF7BFFF024A45
S3150801351011001820ABBEFBE7260002000746384615
S31508013520FFF7F2FFFBE780B5FFF7F8BF2122010895
S3150801353011230108852301080120704701000DFBAD
S30E0801354000000D81008100F6006E
S3090801FFF804000800EA
S3090801FFFC021B0400D1
S705080134C5F8
