S005000086ABC9
S3150800000000040020A52500083B2300083D2300081E
S315080000103F2300084123000843230008000000008E
S315080000200000000000000000000000004723000850
S31508000030452300080000000049230008751F000832
S315080000404B2300084D2300084F23000851230008BE
S31508000050532300085523000857230008592300088E
S315080000605B2300085D2300085F230008612300085E
S31508000070632300086523000867230008692300082E
S315080000806B2300086D2300086F23000871230008FE
S3150800009073230008752300087723000879230008CE
S315080000A07B2300087D2300087F230008812300089E
S315080000B0832300088523000887230008892300086E
S315080000C08B2300088D2300088F230008912300083E
S315080000D0932300081B12000895230008972300089D
S311080000E0992300089B2300089D230008B4
S3150800080030B581B0DFF89C440020207120720720A3
S315080008102070FF2060710020E0700D20607001F0EC
S3150800082033FA451C01F071FA400040EA452048F2C7
S3150800083080010843A08101B030BD000010B5DFF883
S315080008406444A0790D2801D30020A071A079E1792C
S31508000850814202D001212172E071044951F8200039
S315080008608047A0710020207210BD00BFC424000874
S3150800087000B581B00A2000F0CCFC00A800F071FD9C
S31508000880012800D0002001B000BD30B581B00A2093
S3150800089000F0BFFC01F0F8F9DFF80844451C01F048
S315080008A034FA400040EA452048F280010843A08116
S315080008B000A800F056FD18B1022807D006D307E0B5
S315080008C09DF800000002E081022006E0012004E015
S315080008D00820607105202070002001B030BD10B5D9
S315080008E082B00A2000F095FC00A800F03AFD18B185
S315080008F002280FD00CD314E0DFF8A803C1899DF8AD
S3150800090000201143C181828991420ED1042030E032
S3150800091001202EE0DFF88C030921417105210170C1
S3150800092026E0DFF880030821F7E783895B1C9942F4
S3150800093001D103201DE0C07810F03F030AD048F229
S31508000940805444EA430300060ED59942DED0581C6B
S315080009508142EED048F28000814207D048F28100F9
S315080009600140814204D1D3E79942F3D1062000E041
S31508000970002002B010BD10B5DFF8284320780428FF
S3150800098005D1207918B10820207000202071207820
S3150800099000F01DFD2078401F032801D80420207090
S315080009A0012010BD00B581B00A2000F032FC00A875
S315080009B000F0D7FC18B1022815D012D315E09DF81F
S315080009C00000012814D0022816D0032812D00928BE
S315080009D017D0B4480021417105210170002001B0EB
S315080009E000BD0120FBE70420F9E7AE480821F2E73D
S315080009F00520F4E70C20F2E7AA48042141700720F5
S31508000A00EDE70A20EBE710B582B00A2000F001FCFA
S31508000A1000A800F0A6FC18B1022811D00ED316E0E3
S31508000A20A04C9DF80000400614D49DF80000E07024
S31508000A30042000F0CCFC042002B010BD0120FBE726
S31508000A40984C09206071052020700020F4E7954C29
S31508000A500820F7E7052000F0BAFC1620F2E700B5F3
S31508000A6081B00A2000F0D5FB00A800F07AFC18B186
S31508000A7002280CD009D30CE08A489DF800100229F8
S31508000A800AD10621417007200BE0012009E0062063
S31508000A9007E08448082100E0002141710521017022
S31508000AA0002001B000BD10B50A2000F0B2FB7D4C55
S31508000AB004F10B0000F055FC002803D002280AD0E8
S31508000AC007D30AE0E07A607220740120A072082039
S31508000AD010BD012010BD092003E0052000F077FCB9
S31508000AE00820607105202070002010BD00B581B077
S31508000AF00A2000F08EFB00A800F033FC18B102288B
S31508000B0017D014D31FE06748417A9DF80020511882
S31508000B104172817A0A189DF800301374491C817253
S31508000B20C17AFF31C172C9B299B9092012E0012010
S31508000B3010E05C4809214171052101705748006899
S31508000B408047002006E0052000F041FC55480821B2
S31508000B50F1E7082001B000BD10B582B00A2000F008
S31508000B6058FB00A800F0FDFB18B1022818D015D3D1
S31508000B7019E04C4C9DF80000617AC943491CC9B27A
S31508000B80884217D0052000F022FC0A206071052053
S31508000B90207042480068804700201AE0012018E0CB
S31508000BA0404C0920F2E7052000F011FC3D4C0820D6
S31508000BB06071ECE7084800688047012803D10520E2
S31508000BC000F005FCE3E76078042801D100F0FFFB9C
S31508000BD0607802B010BD00BFF425000830B581B0BA
S31508000BE0304C154800688047012803D1052020703D
S31508000BF000201EE0022000F0EAFB002060720025BB
S31508000C00207C401C01280BDB2819007C617A4118DE
S31508000C10617200F0DCFB6D1C207C401C8542F3DB16
S31508000C20607AC043401CC0B200F0D1FB1E20A07001
S31508000C300B2001B030BD00BFF825000810B582B002
S31508000C40184C207A10B10A2000F0E3FAA07800F1D7
S31508000C50FF01A17028B909206071052020700020C5
S31508000C601AE000A800F07DFB18B102280BD008D3C3
S31508000C700BE09DF80000042809D005280BD00020B9
S31508000C80EAE7012008E00B2006E00820E4E72070E8
S31508000C90024800688047042002B010BDFC25000801
S31508000CA00D207047B007002000B581B001F0D5FBD4
S31508000CB000F0FEF918B901F0DBFB002008E03F213F
S31508000CC0044800F0C2FE0028F5D001F0D1FB01204F
S31508000CD001B000BD00000108F0B589B005462878C6
S31508000CE0532801D010206BE0A878D030C0B20A286B
S31508000CF000D3F930E978D031C9B20A2900D3F931DD
S31508000D0001EB0014E4B2002002226100091D032948
S31508000D1017DBAB1C1E78D036F6B20A2E00D3F9368E
S31508000D205F78D037FFB20A2F00D3F93700EB0610E9
S31508000D303818C0B2921CD2B29B1C8A42EADBFF2842
S31508000D4001D014203CE06878302808D0332839D000
S31508000D50372800F03D81392800F02281C2E7287A39
S31508000D60D030C0B20A2800D3F9300006000DCF4CA7
S31508000D70A4F80002697AD031C9B20A2900D3F93138
S31508000D80C9B20843A4F80002A97AD031C9B20A291F
S31508000D9000D3F931C9B240EA0130A4F80002E97A71
S31508000DA0D031C9B20A2900D3F931C9B240EA0120C3
S31508000DB0A4F8000201F020FB4020A4F80202192042
S31508000DC009B0F0BDC9B2284601F01BFB2879D0301E
S31508000DD0C0B20A2800D3F9306979D031C9B20A29D4
S31508000DE000D3F931C0B2C9B2090641EA0070A9793F
S31508000DF0D031C9B20A2900D3F931EA79D032D2B250
S31508000E000A2A00D3F932C9B21206120A42EA015175
S31508000E100843297AD031C9B20A2900D3F9316A7A46
S31508000E20D032D2B20A2A00D3F932C9B21206120C4B
S31508000E3042EA01310843A97AD031C9B20A2900D356
S31508000E40F931EA7AD032D2B20A2A00D3F932C9B2D3
S31508000E50D2B242EA011141EA0006FB34E4B29148F3
S31508000E60864275D20020611004EB91718910B4EBAB
S31508000E7081016BD161000129A1DB05F20C028B4CC3
S31508000E80137803F1D006F6B20A2E00D3F936B4F871
S31508000E9002321D463606360D44F825605678D03699
S31508000EA0F6B20A2E00D3F93654F82570F6B23E4348
S31508000EB044F825609778D037FFB20A2F00D3F93760
S31508000EC0FFB246EA073644F82560D778D037FFB22E
S31508000ED00A2F00D3F937FFB246EA072644F82560F9
S31508000EE01779D037FFB20A2F00D3F937FFB246EA8F
S31508000EF0075644F825605779D037FFB20A2F00D332
S31508000F00F937FFB246EA074644F825609779D0379D
S31508000F10FFB20A2F00D3F937FFB246EA077644F83C
S31508000F202560D779D037FFB20A2F00D3F937FFB239
S31508000F3046EA076644F825605B1CA4F802320830C6
S31508000F40C0B208328842BFF63AAF99E7172037E7AA
S31508000F50012C16DB05F20C0000A922460378D033D3
S31508000F60DBB20A2B00D3F9334578D035EDB20A2D1A
S31508000F7000D3F93505EB031301F8013B801C521E1B
S31508000F80ECD101F06AFA224600A9304600F09BFD32
S31508000F9018B901F06DFA112012E701F069FA0EE7A7
S31508000FA041484FF4807202F10062102352F8044B54
S31508000FB040F8044B52F8044B40F8044B52F8044BE3
S31508000FC040F8044B52F8044B40F8044B5B1EEDD135
S31508000FD0C9B2284601F015FA01F031FA334CB4F8D3
S31508000FE0001288427FF4ADAE01F037FA20464FF082
S31508000FF00061102251F8043B40F8043B51F8043BC9
S3150800100040F8043B51F8043B40F8043B51F8043BD4
S3150800101040F8043B521EEDD1D4F8000110F1010F3F
S3150800102003D101F025FA1820CAE6204610210268E5
S31508001030D0F800310360C0F800214268D0F80431C6
S315080010404360C0F804218268D0F808318360C0F88C
S315080010500821C268D0F80C31C360C0F80C211030E2
S31508001060491EE4D101F0F9F901214FF0006000F0C2
S31508001070ECFC10B901F0FCF98BE74FF4007221463D
S315080010804FF0006000F01FFD0028F3D001F0F0F9E2
S31508001090042000F0C9F901F009F801F0E9F91A206D
S315080010A08EE600BF000400080005002000040020AA
S315080010B000B5C1B000A84FF00061102251F8043BFA
S315080010C040F8043B51F8043B40F8043B51F8043B14
S315080010D040F8043B51F8043B40F8043B521EEDD15E
S315080010E001F0BBF901214FF0006000F0AEFC18B921
S315080010F001F0BEF900200BE04FF4807200A94FF012
S31508001100006000F0E0FC0028F2D001F0B1F90120FF
S3150800111041B000BD70B588B001214FF4804000F0A1
S31508001120CBFB25208DF8040000208DF805008DF8EE
S31508001130060001208DF8070001A800F063FF4FF4B0
S315080011400074ADF8004003208DF8020018208DF8D1
S315080011500300C64D00A9284600F088FE4FF48066B5
S31508001160ADF8006004208DF8030000A9284600F0B9
S315080011707DFE4FF40060ADF8000003208DF80200F4
S3150800118010208DF8030000A9284600F06FFE002203
S315080011904FF40061284600F0D0FE4FF4E13002908B
S315080011A04FF48050ADF80C000020ADF80E00ADF8F5
S315080011B01060ADF812000C20ADF814000020ADF850
S315080011C01600ADF81800ADF81A40ADF81C00A84C8A
S315080011D002A9204600F094FB92486421C0F88811C1
S315080011E0002180F8011180F8021180F8001180F8BA
S315080011F0041180F8051180F80311012240F22551E7
S31508001200204600F0CDFB0121204600F0BFFB08B0C8
S3150800121070BD8449C1F888017047F0B581B0944C17
S3150800122040F225563146204600F0E7FB002849D013
S315080012307C4D95F8050105EB40000021417002211F
S31508001240204600F0CEFB48B10221204600F0D0FB34
S3150800125095F8050105EB4000012117E00821204615
S3150800126000F0BFFB48B90421204600F0BAFB20B9BC
S315080012700121204600F0B5FB48B10D21204600F0BB
S31508001280B7FB95F8050105EB40000321417095F879
S315080012900571204600F0A1FB05F8170095F8050131
S315080012A0401C85F80501C0B2802802D1002085F8C7
S315080012B0050195F80301401C85F8030131462046CF
S315080012C000F0BAFB40F227763146204600F095FB3F
S315080012D058B3544D95F80001C0B195F8020140196C
S315080012E090F80811204600F074FB95F80201401C9E
S315080012F085F80201C0B2802802D1002085F80201D3
S3150800130095F80001FF3085F800010AE00022314611
S31508001310204600F045FB012240F22661204600F0F7
S315080013203FFB3146204600F087FB40F226652946FA
S31508001330204600F062FB90B13A4890F8000150B997
S3150800134000222946204600F02BFB00224FF40061BC
S31508001350464800F0F2FD2946204600F06DFB01B034
S31508001360F0BD70B505462F4C94F8030178B900F026
S3150800137044FE064600F041FED4F88811801B8142DF
S3150800138001D2022070BD94F803010028F2D001F0C2
S3150800139064F894F8040114F81000287094F804010D
S315080013A004EB4000457894F80401401C84F80401D5
S315080013B0C0B2802802D1002084F8040194F8030101
S315080013C0FF3084F8030101F053F8284670BD10B5C4
S315080013D0044601224FF40061244800F0AEFD01F0F6
S315080013E03CF8104890F80111091881F8084190F85E
S315080013F00111491C80F80111C9B2802902D10021C6
S3150800140080F8011190F80011491C80F8001101229A
S3150800141040F22771164800F0C3FABDE8104001F003
S3150800142027B800000406002070B504460F4D0122B7
S315080014304FF40061284600F080FD0D4E80213046AD
S3150800144000F0CFFA0028F9D02146304600F0C1FA5C
S315080014504021304600F0C5FA0028F9D000224FF4A2
S3150800146000612846BDE8704000F067BD00080140ED
S315080014700038014009490A6802F038020A600A6819
S3150800148010430860704705490A6822F010020A608E
S315080014900A681043086070470000000000200240F8
S315080014A00348DFF85C120160DFF8581201607047E4
S315080014B00420024030B481B0014640F6FF7214465B
S315080014C0DFF838321868C00704D5012000250095D2
S315080014D0FF250DE01868400701D5022021E01868AD
S315080014E0C00601D503201CE004201AE0009D6D1EED
S315080014F00095009D002DF9D11D68ED0709D41868DF
S31508001500400701D5022004E01868C0064CBF032036
S315080015100420641E012802D1002CD7D100E004B9AA
S31508001520052004283ED1586840F0020058609960AA
S31508001530586840F0400058601868C00704D5012074
S3150800154000210091FF210DE01868400701D502200F
S3150800155021E01868C00601D503201CE004201AE023
S315080015600099491E009100990029F9D11968C907FF
S3150800157009D41868400701D5022004E01868C00697
S315080015804CBF03200420521E012802D1002AD7D1BD
S3150800159000E002B90520012804D0596841F6FD7219
S315080015A01140596001B030BC704730B481B0024672
S315080015B00F24524B1868C00704D501200025009552
S315080015C0FF250DE01868400701D5022021E01868BC
S315080015D0C00601D503201CE004201AE0009D6D1EFC
S315080015E00095009D002DF9D11D68ED0709D41868EE
S315080015F0400701D5022004E01868C0064CBF032046
S315080016000420641E012802D1002CD7D100E004B9B9
S31508001610052004286FD1586840F0010058601180F1
S315080016200F241868C00704D5012000250095FF255A
S315080016300DE01868400701D5022021E01868C006A9
S3150800164001D503201CE004201AE0009D6D1E0095BC
S31508001650009D002DF9D11D68ED0709D418684007CB
S3150800166001D5022004E01868C0064CBF03200420F8
S31508001670641E012802D1002CD7D100E004B9052048
S31508001680042831D1080C50800F211868C00704D5EA
S31508001690012000220092FF220DE01868400701D5BC
S315080016A0022021E01868C00601D503201CE00420AA
S315080016B01AE0009A521E0092009A002AF9D11A6876
S315080016C0D20709D41868400701D5022004E0186833
S315080016D0C0064CBF03200420491E012802D1002958
S315080016E0D7D100E001B90520012804D0596841F690
S315080016F0FE721140596001B030BC70470C200240A0
S3150800170023016745AB89EFCD01490860704700BFE3
S315080017100C20024079480021C16001611421416111
S3150800172000218161C161016841F0010101604168E0
S31508001730084A114041600168074A11400160016882
S3150800174021F480210160416821F4FE0141600021F5
S31508001750816070470000FFF8FFFFF6FE67490A68D8
S3150800176022F480320A600A6822F480220A60B0F500
S31508001770803F03D0B0F5802F04D07047086840F446
S31508001780803002E0086840F4A02008607047000036
S315080017900C485A490A6802F40032521E9241D24352
S315080017A0D20F02704268521C4260027812B942682F
S315080017B0FF2AEFD1086800F40030401E8041C0437C
S315080017C0C00F70479C0700203A4A136823F47C131D
S315080017D0184308431060704701490860704700BF06
S315080017E06000424233490A68920892001043086032
S315080017F070473048006800F00C0070472D490A68A9
S3150800180022F0F0021043086070472A490A6822F459
S31508001810E06210430860704726490A6822F460525D
S3150800182042EAC0000860704710B422490A6802F00C
S315080018300C02082A01D01C4A0FE00A6802F470124A
S31508001840920C921C0B68DB0301D4184B04E00B685E
S315080018509B034CBF154B144B5A4302600B68144A42
S31508001860046803F0F0031B099B5C24FA03F3436046
S315080018700C6804F4E064240AA45CE34083600B6803
S31508001880446803F46053DB0A9B5C24FA03F3C360E1
S31508001890096801F4404102EB9131097CB3FBF1F18F
S315080018A0016110BC704700BF00127A0000093D00B4
S315080018B0BC25000804100240044A0029116814BF18
S315080018C0084321EA00001060704700BF1810024064
S315080018D041090A4A012901D1116803E002290CBF0E
S315080018E0116A516A012200F01F0002FA00F008404E
S315080018F0401E8041C043C00F7047000000100240E0
S3150800190030B585B005460C46288A4CF2FF010840DA
S31508001910E1880843E1890843218A0843618A084324
S31508001920A18A08432882A8894EF6F3110840A1889F
S31508001930084321890843A1890843A881A88A4FF644
S31508001940FF41084061890843A88200A8FFF76CFF99
S315080019500D4885420CBF039802981921484321680F
S315080019608900B0FBF1F06421B0FBF1F21201130912
S3150800197001FB130000013230B0FBF1F000F00F005C
S315080019801043288105B030BD0038014000298189FF
S3150800199012BF41F400514DF6FF7211408181704724
S315080019A010B40B065B0F012401F01F0104FA01F1C4
S315080019B0012B01D10C3003E0022B0CBF1030143080
S315080019C0002A026814BF114322EA0101016010BC13
S315080019D07047C905C90D818070478088C005C00D4C
S315080019E0704700880140481E8041C043C00F7047B9
S315080019F0028822EA01010180704710B40A06520FD4
S31508001A00012301F01F0403FA04F4012A01D1828993
S31508001A1003E0022A0CBF028A828A2240090A03FAD4
S31508001A2001F10088084022B1401E8041C043C00F22
S31508001A3000E0002010BC704702880123090A03FA57
S31508001A4001F122EA010101807047F0B581B005462F
S31508001A500C4600F002FDFFF723FD3520FFF754FE84
S31508001A6004208DF8000045F25556304600F00EFD6C
S31508001A7040F2E24000F014FD00F018FD00277CB1AA
S31508001A809DF8000004280BD12846FFF713FD8DF8B2
S31508001A90000000F00BFD7F1C05F58065A742EFD31B
S31508001AA0304600F0F3FC40F2712000F0F9FC00F03B
S31508001AB0FDFC00F0DDFC9DF8000004280CBF0120A9
S31508001AC0002001B0F0BD2DE9F04D81B002B4934677
S31508001AD0054600F0C2FC00260127042445F25550AD
S31508001AE000F0D4FC40F2E24000F0DAFC00F0DEFC44
S31508001AF04FF0FF0826E04FF0FF3A002000997118D2
S31508001B0000225E4511DA08FA02F32AEA030311F8FD
S31508001B10014B4FEAC00C04FA0CF444EA030A761C9B
S31508001B20B6B2401C08320428EBDB51462846FFF7BC
S31508001B303CFD044600F0BAFC042C0BD1286850453D
S31508001B4008D12D1D5E4506DA042C04D1286810F14B
S31508001B50010FD0D0002745F2555000F097FC40F20F
S31508001B60712000F09DFC00F0A1FC00F081FC3846D5
S31508001B7002B0BDE8F08D00002DE9F04F81B000F00D
S31508001B80E7FA00F063FC00F027FB00F067FB00F0C3
S31508001B90D9F9FFF7BFFAFEF733FE00F0ADFC0022D5
S31508001BA04FF480512E4800F0C8F92E4C00224FF40D
S31508001BB08061204600F0C1F901224FF400712046E9
S31508001BC000F0BBF900224021204600F0B6F9DFF804
S31508001BD098B0264C264D274E274FDFF8A080DFF811
S31508001BE0A090DFF8A0A002E000208AF80000FEF727
S31508001BF025FE9AF800000128F6D099F80000012879
S31508001C0003D1002089F80000F1E798F800000128C0
S31508001C1005D1002088F8000000F048FCE7E738788E
S31508001C20012802D100203870E1E73078012802D176
S31508001C3000203070DBE72878012802D100202870C0
S31508001C40D5E72078012802D100202070CFE79BF83D
S31508001C5000000128CBD100208BF80000C7E700BFA1
S31508001C60000801400010014090070020910700205D
S31508001C70920700209307002094070020950700206C
S31508001C80960700209707002010B582B000208DF82F
S31508001C9000003B4C0121204600F048F928B99DF880
S31508001CA0000040F001008DF800000221204600F0F7
S31508001CB03DF928B99DF8000040F002008DF80000B3
S31508001CC00421204600F032F928B99DF8000040F0BA
S31508001CD004008DF800000821204600F027F928B9ED
S31508001CE09DF8000040F008008DF8000010212046FD
S31508001CF000F01CF928B99DF8000040F010008DF896
S31508001D0000009DF8000002B010BD10B582B000209A
S31508001D108DF800001A4C4FF48071204600F006F941
S31508001D2028B99DF8000040F001008DF800004FF436
S31508001D300071204600F0FAF828B99DF8000040F036
S31508001D4002008DF800004FF48061204600F0EEF89E
S31508001D5028B99DF8000040F004008DF800004FF403
S31508001D600061204600F0E2F828B99DF8000040F02E
S31508001D7008008DF800009DF8000002B010BD0000B4
S31508001D800014014010B5384C6078A62817D0A7284B
S31508001D9004D0A82816D0AD281CD02EE0FEF784FF64
S31508001DA0002804D12B4811210170012010BD2A48B2
S31508001DB0017841F0020101701148012101700020EB
S31508001DC0607010BDA01CFEF787FF1928F7D02149BF
S31508001DD00870EAE760701E480178A1704078E070E4
S31508001DE0084801880A0A227161714088010AA171AE
S31508001DF0E07107202070002010BD16480421D3E7A3
S31508001E00B4070020F8FF000817484178D9B9AC2173
S31508001E1041700F490A7882704A78C27089780171D0
S31508001E200A490A7842714A7882718978C1710949E2
S31508001E300A780272FF220A7007490978417200215E
S31508001E4081720A2101700020704700BFFCFF01085B
S31508001E50FCFF0008B5070020AE0700200248002155
S31508001E604170002070470000C00700202DE9F041AE
S31508001E70CB7803F00F02DB0601D58B781A430B8863
S31508001E80DCB22CB3D0F800C0002401250F2605FAD1
S31508001E9004F707EA0308B84515D14FEA840E06FA8F
S31508001EA00EF82CEA080C02FA0EFE4EEA0C0C91F813
S31508001EB003E0BEF1280F00D1476191F803E0BEF1B7
S31508001EC0480F00D10761641C082CE0D3C0F800C095
S31508001ED04FF48074A34227D3D0F804C00024012508
S31508001EE00F2604F1080705FA07F707EA0308B845B5
S31508001EF015D14FEA840E06FA0EF82CEA080C02FAF7
S31508001F000EFE4EEA0C0C91F803E0BEF1280F00D144
S31508001F10476191F803E0BEF1480F00D10761641CE0
S31508001F20082CDED3C0F804C0BDE8F0818068014003
S31508001F30481E8041C043C00F7047002A14BF016184
S31508001F404161704700B581B000F014F82C480021B3
S31508001F5081606FF0040000F023FA42F2283000F0A6
S31508001F6029FA012000F03BFA012001B05DF804EBE4
S31508001F7000F026BA22488168491C816081680722D8
S31508001F80114201D10121017081680F22114201D14C
S31508001F900121417081681F22114201D101218170FE
S31508001FA081683F22114201D10121C17081687D22D9
S31508001FB0B1FBF2F302FB131109B901210171816822
S31508001FC0FA22B1FBF2F302FB131109B9012141719F
S31508001FD081684FF4FA72B1FBF2F302FB131109B9E7
S31508001FE00121817181684FF47A72B1FBF2F302FB29
S31508001FF0131109B90121C1717047014880687047FA
S31508002000900700202DE9F04105780121C2787AB3BE
S31508002010294A126802F4E062C2F5E062120AAB10BD
S31508002020DFF8648058F8237005F00305ED00FF26F5
S31508002030AE40B7434478C2F1040E04FA0EFC90F899
S3150800204002E00F2424FA02F202EA0E0242EA0C0225
S315080020501201AA4032403A4348F823200078421138
S31508002060084B00F01F0001FA00F043F8220006E0D2
S315080020706811064A05F01F03994042F82010BDE88A
S31508002080F08100BF00E100E000E400E080E100E04C
S3150800209000F041B900F041B9024A1140084302492B
S315080020A00860704780FFFF1F08ED00E002480149FD
S315080020B0016070470100FA050CED00E0F0B500F18B
S315080020C00801026801EBC202406802EBC000002367
S315080020D000241D4601260CE013F8017BF44506D0C2
S315080020E00CF8017B6D1C2DB2002DF7D40126F445A2
S315080020F009D1824200D1F0BD52F804CB52F8047BD4
S3150800210007EB0C0EF3E7A34206D151F8043B51F84E
S31508002110044BE418A342F8D05EB113F9015B00261C
S31508002120A34206D151F8043B51F8044BE418A342E4
S31508002130F8D0002DD0D4002DD8D4F445D7D0A3425A
S31508002140D5D013F8017B0CF8017B6D1E2DB2F2E792
S3150800215000B581B0FFF7DEFA4FF48030FFF7FEFADC
S31508002160FFF716FB012824D11020FFF78CF902206F
S31508002170FFF780F90020FFF741FB0020FFF74CFB33
S315080021804FF48060FFF741FB4FF4E0114FF48030C5
S31508002190FFF71AFB0120FFF71FFB3920FFF798FB13
S315080021A00028FAD00220FFF71DFBFFF722FB0828BC
S315080021B0FBD101210420FFF77FFB01210820FFF74F
S315080021C07BFB01211020FFF777FB0121202001B0BE
S315080021D05DF804EBFFF770BB10B582B04FF6FF70E1
S315080021E0ADF8000003208DF8020004208DF80300E6
S315080021F000A91648FFF73AFE00A91548FFF736FE6C
S3150800220000A91448FFF732FE134C00A92046FFF731
S315080022102DFE4FF47060ADF8000003208DF8020023
S3150800222004208DF8030000A92046FFF71FFE1F2093
S31508002230ADF8000003208DF8020004208DF8030095
S3150800224000A92046FFF712FE02B010BD00080140A3
S31508002250000C0140001001400014014010B582B086
S315080022604FF48050ADF8000003208DF802001020CE
S315080022708DF8030000A91348FFF7F8FD4FF4E06056
S31508002280ADF8000003208DF8020010208DF8030039
S315080022900D4C00A92046FFF7E9FD4020ADF80000E7
S315080022A003208DF8020010208DF8030000A92046AF
S315080022B0FFF7DCFD00224FF480712046FFF73DFE54
S315080022C002B010BD000801400010014030BF704741
S315080022D020BF704740BF7047BFF36F8F7047BFF38B
S315080022E04F8F7047BFF35F8F704701DF7047EFF37B
S315080022F01480704780F31488BFF36F8F7047EFF32D
S315080023000980704780F309887047EFF308807047A3
S3150800231080F30888704772B6704762B6704771B620
S31508002320704761B6704780F311887047EFF31280E3
S31508002330704740BA704700BA70477047FEE7FEE735
S31508002340FEE7FEE77047704770477047704770476B
S3150800235070477047704770477047704770477047B7
S3150800236070477047704770477047704770477047A7
S315080023707047704770477047704770477047704797
S315080023807047704770477047704770477047704787
S31508002390704770477047704770477047704700002E
S315080023A01449042808680CBF40F0040020F0040013
S315080023B00860704701490860704700BF14E000E0F4
S315080023C00C49002801D1886070470128086802D1A5
S315080023D040F0010001E040084000086070470549E8
S315080023E00028086814BF40F0020020F002000860C8
S315080023F07047000010E000E013484FF6FF710180B7
S315080024007047F0B4C9B148F208420F4BFF3104785F
S315080024101D8808266F0804F0010C05F001059CEAE2
S31508002420050F14BF82EA07053D466408761EF1D1FA
S315080024301D80401CC9B20029E8D1F0BC704702488B
S315080024400088704700000000AC0700200E480021F5
S3150800245001604FF00060FFF71FBE00B581B00A4863
S3150800246001684A1C026009B9FFF712FE01B000BDF7
S3150800247000B581B00448016821B1491E016001D147
S31508002480FFF708FE01B000BDA40700200C4908604C
S315080024907047000001490860704700BF04300040DB
S315080024A001490860704700BF0830004004484AF6F2
S315080024B0AA210160704702484CF6CC41016070477A
S315080024C000300040710800088B080008DF08000883
S315080024D077090008A5090008070A00085F0A000826
S315080024E0A70A0008ED0A0008590B0008DD0B0008CA
S315080024F03D0C0008A10C000800B581B045F2555006
S31508002500FFF7C4FF0320FFF7C5FF40F27120FFF76E
S31508002510C7FFFFF7CBFF01B05DF804EBFFF7CBBFB2
S3150800252089250008B0030000000400200000000010
S31508002530BD20000801000000010000000426000874
S315080025400D000000B00700201001000010B5054876
S31508002550054CA04204D050F8041B8847A042FAD183
S3150800256010BD00BF202500084C25000800B5054A07
S315080025701068002804D011000220ABBE00201060AD
S3150800258000BD0000A8070020002305E050F8041B42
S3150800259041F8043B121FFBD150F8042B002AF5D151
S315080025A07047000000F02CF8002801D0FFF7CEFF96
S315080025B00020FFF7E1FA00F01AF80000000000001A
S315080025C001020304010203040607080902040608B7
S315080025D080B5FFF7CBFF024A11001820ABBEFBE718
S315080025E02600020007463846FFF7F2FFFBE780B5EC
S315080025F0FFF7F8BF851D0008091E00085D1E0008C4
S315080026000120704701000DFB00000D81008100F6D6
S3060800261000BB
S3090800FFF804000800EB
S3090800FFFC021B0400D2
S705080025A528
