S0050000B48DB9
S315080000000004002045660008016300080363000831
S31508000010056300080763000809630008000000007C
S315080000200000000000000000000000000D6300084A
S315080000300B630008000000000F6300089D5D0008C0
S3150800004011630008136300081563000817630008A6
S31508000050196300081B6300081D6300081F63000876
S315080000602163000823630008256300082763000846
S31508000070296300082B6300082D6300082F63000816
S315080000803163000833630008C54800083563000873
S3150800009037630008396300083B6300083D630008BE
S315080000A03F6300084163000843630008456300088E
S315080000B047630008496300084B630008634000086B
S315080000C0614000084D6300084F630008516300084B
S315080000D053630008333B000855630008576300085C
S311080000E0596300085B6300085D630008B4
S3150800080010B50446207818280AD2204605F0AEFC12
S31508000810601C2178034A52F82110BDE810400847A9
S31508000820242010BDA0620008F0B581B006462C242D
S31508000830DFF8A45C002E4CD1DFF8A07C4FF4005101
S31508000840384605F052F94FF48051384605F04FF90D
S315080008504FF48051384605F048F94FF48051384630
S3150800086005F045F94FF48051384605F040F94FF444
S315080008708051384605F039F94FF48051384605F06D
S3150800088036F94FF48051384605F02FF94FF4805168
S31508000890384605F02CF94FF48051384605F025F90D
S315080008A04FF48051384605F022F94FF48051384606
S315080008B005F01BF94FF48051384605F018F94FF446
S315080008C08051384605F011F900202870204601B0FD
S315080008D0F0BD2878864222D0072E19D106281CD1C9
S315080008E0DFF8F87B4FF40051384605F0FEF84FF470
S315080008F08051384605F0FBF84FF48051384605F02C
S31508000900F4F84FF48051384605F0F1F8072069E00D
S315080009100E2E6CD10D2800F099812524D6E7062ED7
S315080009202FD1DFF8B87B4FF40051384605F0DDF8D3
S315080009304FF48051384605F0DAF84FF480513846BE
S3150800094005F0D3F84FF48051384605F0D0F8072063
S315080009502870DFF8887B4FF40051384605F0C5F853
S315080009604FF48051384605F0C2F84FF480513846A6
S3150800097005F0BBF84FF48051384605F0B8F8082062
S3150800098030E00D2EA2D1DFF8547B4FF400513846E3
S3150800099005F0ABF84FF48051384605F0A8F84FF447
S315080009A08051384605F0A1F84FF48051384605F0D5
S315080009B09EF80E202870DFF8247B4FF40051384645
S315080009C005F093F84FF48051384605F090F84FF447
S315080009D08051384605F089F84FF48051384605F0BD
S315080009E086F80F202870287886423FF46FAF28785B
S315080009F00F2800F2478102A131F910108F4400BF79
S31508000A00200052015000AA00DE000E01E0FE44015B
S31508000A104C018201B201E60116024C027C024C012D
S31508000A20DFF8B87A4FF40051384605F060F84FF40D
S31508000A308051384605F05BF84FF48051384605F08A
S31508000A4054F84FF48051384605F051F80120C9E7AB
S31508000A50DFF8887A092E4FF40051384612D305F08C
S31508000A6044F84FF48051384605F041F84FF4805168
S31508000A70384605F03AF84FF48051384605F037F80D
S31508000A800920AFE705F033F84FF48051384605F0F2
S31508000A902EF84FF48051384605F027F84FF4805168
S31508000AA0384605F024F803209CE7042E17D1DFF812
S31508000AB02C7A4FF40051384605F019F84FF4805156
S31508000AC0384605F014F84FF48051384605F00DF80D
S31508000AD04FF48051384605F00AF8042082E7DFF81B
S31508000AE0FC794FF40051384604F0FFFF4FF480516B
S31508000AF0384604F0FCFF4FF48051384604F0F5FF01
S31508000B004FF48051384604F0F2FF05206AE7062EB6
S31508000B107FF41FAFDFF8C4794FF40051384604F06C
S31508000B20E6FF4FF48051384604F0E1FF4FF4805158
S31508000B30384604F0DAFF4FF48051384604F0D7FF00
S31508000B400620C2E6042E7FF404AFB0E7012E3FF478
S31508000B5067AFDFF888794FF40051384604F0C5FFCF
S31508000B604FF48051384604F0C2FF4FF4805138469E
S31508000B7004F0BBFF4FF48051384604F0B8FF02205A
S31508000B8030E7DFF858794FF40051384604F0AFFFE4
S31508000B904FF48051384604F0AAFF4FF48051384686
S31508000BA004F0A3FF4FF48051384604F0A0FF0A2052
S31508000BB018E70B2E17D1DFF824794FF40051384681
S31508000BC004F095FF4FF48051384604F090FF4FF437
S31508000BD08051384604F089FF4FF48051384604F0B6
S31508000BE086FF0B20FEE6DFF8F4784FF4005138460E
S31508000BF004F07BFF4FF48051384604F078FF4FF439
S31508000C008051384604F071FF4FF48051384604F09D
S31508000C106EFF0C20E6E60D2E7FF4CDAEDFF8BC782D
S31508000C204FF40051384604F062FF4FF480513846BD
S31508000C3004F05DFF4FF48051384604F056FF4FF438
S31508000C408051384604F053FF0D203EE6DFF88C78D5
S31508000C504FF40051384604F048FF4FF480513846A7
S31508000C6004F045FF4FF48051384604F03EFF4FF438
S31508000C708051384604F03BFF0E20B3E60B2E7FF476
S31508000C809AAE98E725242E70ADE62DE9F04F81B08F
S31508000C90054690469B46E81DB8F1000F05D0821020
S31508000CA000EB52725205120E9044821000EB5270FD
S31508000CB04005000E00EB010ADFF8209822E004F058
S31508000CC016FFFF053F0E4FF48051484604F00FFF0C
S31508000CD04FF40041484604F001FF401E8041C043DE
S31508000CE0C00FB0402043C4B24FF48051484604F0C8
S31508000CF0FCFE701CC6B2ADB24DB9B8F1000F01D0FA
S31508000D0008F8014DC5B11AF8017D00240026082E01
S31508000D10F3DA6D1EBBF1000F06D0ADB225B94FF45C
S31508000D200051484604F0E1FEF8074FF48041484672
S31508000D30C5D504F0DAFEC4E701B0BDE8F08F2DE9A9
S31508000D40FF4F83B0DDF844B0139EDDF850A02C2782
S31508000D50002500249DF8481088421ABF01200190FA
S31508000D600194BDF81000A8BB2EB10120FFF75CFD69
S31508000D7007462C2F01D03846C2E04FF47A70B6FBEE
S31508000D80F0F4DFF858574FF48051284604F0AFFEC8
S31508000D904FF48051284604F0A8FE4FF480512846A7
S31508000DA004F0A5FE00A805F05FFC009805F056FCC7
S31508000DB0A042E0D24FF48051284604F098FE4FF442
S31508000DC08051284604F091FE4FF48051284604F0DD
S31508000DD08EFEEAE79DF80C00FFF726FD07462C2F46
S31508000DE0C9D1019BDBB2069A0599BDF81000FFF739
S31508000DF04CFF1098D8B1BDF81000C01D811000EB4B
S31508000E0051704005000E0146481E79B180B2109A0D
S31508000E10825C069BC35CBBF1000F03D010F80B1075
S31508000E200A400B409A42EED0012500E000250198C1
S31508000E30002854D0DFF8A0060178491C01708DB14E
S31508000E4086B154450EDA0620FFF7EEFC07462C2F2E
S31508000E5091D10420FFF7E8FC07462C2F8BD106EB2F
S31508000E60A60607E09DF84800FFF7DEFC07462C2F8C
S31508000E707FF481AF9EB30120FFF7D6FC07462C2FDF
S31508000E807FF479AF4FF47A70B6FBF0F8DFF84C963A
S31508000E904FF48051484604F02AFE4FF480514846E4
S31508000EA004F023FE4FF48051484604F020FE00A8C3
S31508000EB005F0DAFB0EE04FF48051484604F017FEC1
S31508000EC04FF48051484604F010FE4FF480514846CE
S31508000ED004F00DFE009805F0C1FB4045EBD3002D4C
S31508000EE03FF449AF2046441CE4B25045FFF472AFC4
S31508000EF0BAF1000F03D0A24501DA232000E0222030
S31508000F0007B0BDE8F08F2420704730B581B00424BF
S31508000F1005F04AF908B127243BE0DFF8C05540211F
S31508000F20284604F0DBFD60BB2046441E80B240B371
S31508000F304FF48051284604F0DAFD4FF480512846D4
S31508000F4004F0D3FD4FF48051284604F0D0FD00A8E4
S31508000F5005F08AFB009805F081FB4FF4FA71884288
S31508000F60DBD24FF48051284604F0C1FD4FF480517E
S31508000F70284604F0BAFD4FF48051284604F0B7FD20
S31508000F80E8E74021284604F0A9FD002814BF2D24CF
S31508000F90282404F06FFB204601B030BD10B4DFF8FA
S31508000FA03815CA78F2B101F2340112F0030305D0FC
S31508000FB010F8014B01F8014B5B1EF9D1920811D0CC
S31508000FC010F8013B01F8013B10F8013B01F8013B21
S31508000FD010F8013B01F8013B10F8013B01F8013B11
S31508000FE0521EEDD12C2010BC704700B585B00246C4
S31508000FF012F8011BC81D831000EB53704005000E44
S31508001000292801D326200EE0DFF8CC040023049318
S315080010108368039340780290002001900090002393
S315080010200B20FFF78CFE05B000BD00B585B0024663
S3150800103012F8010B12F8011B41EA0021C81D8310A2
S3150800104000EB53704005000E292801D326200EE038
S31508001050DFF884040023049383680393407802909E
S3150800106000200190009000230B20FFF768FE05B0D2
S3150800107000BD00B585B0DFF860140A7904928A6865
S3150800108003928A78029201F13402019201F10C026C
S31508001090009201F15C030246C9880420FFF74FFE5F
S315080010A005B000BDDFF830148A6812028A6003783A
S315080010B01A438A6012028A6010F8013F1A438A604E
S315080010C08A6812028A6010F8013F1A438A608A68A1
S315080010D012028A6010F8013F43EA020088602C2059
S315080010E0704730B581B0044604F07AFADFF8E85361
S315080010F000202871287001206870A8700020E880F8
S31508001100E870A860FFF790FB2078287105F012F8C0
S31508001110072005F014F8287905F011F82B2001B0FE
S3150800112030BDDFF8B413CA881202CA8003781A439E
S31508001130CA801202CA8010F8013F1A43CA80CA88B8
S315080011401202CA8010F8013F1A43CA80CA881202DE
S31508001150CA8010F8013F43EA0200C880C888C01D4B
S31508001160821000EB5270C010C870C878292801D3C5
S31508001170262070472C207047F0B585B00025D64C40
S31508001180E3782BB304F20C0219460E1813F0030782
S3150800119006D016F801CB02F801CB6D1C7F1EF8D1DC
S315080011A09B0815D06E18365C02F8016B6D1C6E181C
S315080011B0365C02F8016B6D1C6E18365C02F8016B22
S315080011C06D1C6E18365C02F8016B6D1C5B1EE9D14E
S315080011D021790491A1680391A178029104F134015F
S315080011E0019104F10C01009104F15C030246E188C7
S315080011F00420FFF7A4FD05B0F0BD10B50446042091
S31508001200FFF712FB2C280AD1B348002300F15C0231
S315080012102146C088FFF739FD0420FFF705FB10BDFE
S3150800122010B504460420FFF7FFFA2C280AD1AA486D
S31508001230002300F15C022146C088FFF726FD042042
S31508001240FFF7F2FA10BD30B581B004460420FFF767
S31508001250EBFA2C280DD1A04D012305F15C0221469D
S31508001260E888FFF712FD2878401C2870A878FFF751
S31508001270DBFA01B030BDF0B585B00025964CE378B1
S315080012802BB304F20C0219460E1813F0030706D006
S3150800129016F801CB02F801CB6D1C7F1EF8D19B080E
S315080012A015D06E18365C02F8016B6D1C6E18365C2C
S315080012B002F8016B6D1C6E18365C02F8016B6D1C2A
S315080012C06E18365C02F8016B6D1C5B1EE9D10021B5
S315080012D004910391042102910021019104F10C016A
S315080012E0009104F15C030246E1880420FFF727FD1C
S315080012F005B0F0BDF0B585B00025774CE3782BB383
S3150800130004F20C0219460E1813F0030706D016F855
S3150800131001CB02F801CB6D1C7F1EF8D19B0815D0B6
S315080013206E18365C02F8016B6D1C6E18365C02F896
S31508001330016B6D1C6E18365C02F8016B6D1C6E181D
S31508001340365C02F8016B6D1C5B1EE9D10021049125
S315080013500391042102910021019104F10C010091ED
S3150800136004F15C030246E1880420FFF7E8FC05B0B7
S31508001370F0BDF0B585B00025574CE3782BB304F2E1
S315080013800C0219460E1813F0030706D016F801CBFF
S3150800139002F801CB6D1C7F1EF8D19B0815D06E187C
S315080013A0365C02F8016B6D1C6E18365C02F8016B30
S315080013B06D1C6E18365C02F8016B6D1C6E18365C77
S315080013C002F8016B6D1C5B1EE9D1002104910391A3
S315080013D0A17802910021019104F10C01009104F118
S315080013E05C030246E1880420FFF7A9FC05B0F0BDBE
S315080013F00078FFF719BA0078002803D0012803D02F
S3150800140025207047012000E00D20334948702C2024
S3150800141070470078002803D0012803D0252070479C
S31508001420012000E006202C4988702C20704710F80F
S31508001430011B0029FBD12C207047F0B581B001783B
S3150800144010F8014F10F8012F10F8013F43EA022265
S3150800145010F8013F43EA022210F8013F43EA022648
S315080014601D4D2878884202D00846FFF7DDF94FF46B
S315080014707A70B6FBF0F6194F4FF48051384604F0EF
S3150800148036FB4FF48051384604F02FFB4FF4805159
S31508001490384604F02CFB00A805F0E6F80EE04FF4F9
S315080014A08051384604F023FB4FF48051384604F047
S315080014B01CFB4FF48051384604F019FB009805F0E0
S315080014C0CDF8B042EBD32878A04202D02046FFF7E9
S315080014D0ABF92C2001B0F0BD9007002000140140A4
S315080014E010B582B0DFF8A449A078801E072800F25C
S315080014F07D80DFE800F004107B24334E5D6BDFF857
S3150800150090190878A0704878E070032020718878D0
S315080015106071052069E0DFF878190878A0704878C6
S31508001520E07003202071DFF87C0801880A0A6271DE
S31508001530A1714088010AE1712072082055E0DFF8A0
S3150800154050190878A0704878E0700520207100A826
S3150800155001F0B4FB60719DF8000044E0E0788DF876
S31508001560000001F095FBDFF828190A78A27049787F
S31508001570E17006212171002161719DF80010A171A9
S31508001580010EE171010C2172010A6172A0720A2032
S315080015902BE0DFF8FC180878A0704878E070072080
S315080015A0207100A801F004FC60719DF800001AE0A3
S315080015B0DFF8DC180878A0704878E07008202071F9
S315080015C001F0A0FC607101F074FB0CE0DFF8C018B4
S315080015D00878A0704878E0700920207101F0ECFCCA
S315080015E0607101F066FBA07106202070002002B031
S315080015F010BD00002DE9F047DFF890482078232831
S3150800160005D0DFF890080B210170012045E0DFF8CE
S315080016108008A1780278914203D0DFF8780806217D
S31508001620F2E7E1784078814203D0DFF868080721BD
S31508001630EAE7251D1A4E08274FF0640815F8010B2E
S3150800164004F078FF814615F8010B04F073FF08FBD8
S31508001650090080B2F0801349B1F8009090FBF9F1C7
S315080016600818B08015F8010B04F064FF824615F8D7
S31508001670010B04F05FFF08FB0A0080B2708090FB44
S31508001680F9F1401A308006F20A067F1ED6D10020EC
S3150800169060700548002101700020BDE8F08700BF92
S315080016A0F2090020BC660008E40800202DE9F04194
S315080016B0DFF8D847A2206070DFF8D4070178A17058
S315080016C04178E1708078207104F20508174E0827E2
S315080016D06425B08890FBF5F0C0B204F01BFF08F84B
S315080016E0010BB08890FBF5F105FB1100C0B204F0C0
S315080016F011FF08F8010B308890FBF5F0C0B204F032
S3150800170009FF08F8010B308890FBF5F105FB11007D
S31508001710C0B204F0FFFE08F8010B06F20A067F1EA7
S31508001720D7D1242020700020BDE8F081F4090020DC
S315080017302DE9F04381B0DFF85447A4206070DFF844
S3150800174050070178A1704178E1708078207104F023
S3150800175068FB4FF47A71B0FBF1F8244FB8FBF7F643
S315080017606425B6FBF5F95FFA89F004F0D3FE6071DB
S3150800177005FB1960C0B204F0CDFEA07107FB168800
S315080017804FF46167B8FBF7F6F0B204F0C3FEE071F8
S3150800179007FB16883C27B8FBF7F6F0B204F0BAFE4A
S315080017A0207207FB1680C0B204F0B4FE607204F221
S315080017B00A080F4F0826388890FBF5F0C0B204F0E7
S315080017C0A9FE08F8010B37F80A0B90FBF5F105FBA3
S315080017D01100C0B204F09EFE08F8010B761EEAD18D
S315080017E019202070002001B0BDE8F0838051010067
S315080017F0F009002010B5DFF89446A078012819D022
S31508001800022833D0032860D1AE206070DFF8801636
S315080018100878A0704878E070032020712E48007878
S3150800182060712E480088010AA171E07107202070B6
S31508001830002010BDE07803F01FF9AE216170DFF8D3
S3150800184050160A78A2704978E170012121716071F9
S31508001850DFF830060178A1714178E171817821724B
S31508001860C17861720079A0720A20E0E7E07800F09A
S315080018700F0002280CD1E079410716D5800900F03F
S3150800188001026179A07900F0030003F059FE0CE02B
S3150800189004280AD1DFF8E805007810B9E07903F0E2
S315080018A05BFEE079DFF8E01508700D48E178017015
S315080018B02179417061798170A179C170E1790171ED
S315080018C003F0F3F800206070B2E7DFF8C8050421DA
S315080018D00170012010BD00BFD0080020D2080020EA
S315080018E09C08002010B586B0DFF8A045A078401EF9
S315080018F00F2800F20681DFE810F0100028003A00F1
S3150800190054006000630066006B00700075007A0082
S31508001910C900B500E100F900FD0003A800F0C2FA0D
S31508001920B1216170DFF868150A78A2704978E1700C
S315080019300121217130280CBF0020012060719DF81B
S315080019400C00A07106202070D8E003A800F0CAFA9F
S31508001950B1216170DFF838150A78A2704978E1700C
S315080019600221217130280CBF00200120E6E70DF185
S315080019700F0103A800F0D6FAB1216170DFF810153F
S315080019800A78A2704978E1700321217130280CBFCA
S315080019900020012060719DF80C00A07106202070BF
S315080019A0ACE000F0E8FA00216170302800F0A6806B
S315080019B0DFF8E01408700120A1E000F0F1FAF2E780
S315080019C000F003FBEFE72179E07800F013FBEAE784
S315080019D02179E07800F029FBE5E72179E07800F045
S315080019E03FFBE0E72179E07800F053FBDBE70DF1F8
S315080019F00D0002900DF10E00019004A800900DF163
S31508001A00120305AA2179E07800F0B6FBB1216170CE
S31508001A10DFF87C140A78A2704978E1700B212171ED
S31508001A2030280CBF002001206071BDF81400000AA0
S31508001A30A071BDF81400E071BDF81200000A20720A
S31508001A40BDF812006072BDF81000000AA072BDF859
S31508001A501000E0729DF80E0020739DF80D0060736B
S31508001A600D2070E7B1206070DFF824140878A070A4
S31508001A704878E0700D20207100206071DFF81C04A2
S31508001A800088010AA171E071072088E7B12060701B
S31508001A90DFF8FC130878A0704878E0700C202071F5
S31508001AA000206071DFF8F0030068010EA171010CD7
S31508001AB0E171010A21726072092044E703A800F067
S31508001AC001FBB1216170DFF8C8130A78A270497862
S31508001AD0E1700E21217130280CBF002001206071B1
S31508001AE09DF80C00A0710620207007E0E07800F051
S31508001AF005FB58E702F0AAF900206070002006B03E
S31508001B0010BD00206070DFF88C030421017052E7D5
S31508001B1030B581B0DFF87443A078C01E0E2800F2F5
S31508001B209D80DFE800F0449B3121084A549B9B9B2B
S31508001B309B9B9B5E7E0000A800F01FFD20B1D54848
S31508001B401521017001200DE00098000EE070009844
S31508001B50000C20710098000A60710098A071062098
S31508001B602070002001B030BDA5792A46E11CE07836
S31508001B7023791B0243EA00406379184300F07CFD91
S31508001B800028DCD1A81CEBE7207800F1FB02D2B2D2
S31508001B90A11DE07823791B0243EA004063791843C4
S31508001BA000F0E8FD0028CAD100206070D9E70020BF
S31508001BB000F01DFF0028C2D1F6E7E0782179090276
S31508001BC041EA00406179084300F06EFEF2E7E078EA
S31508001BD02179090241EA00406179084300F007FFCC
S31508001BE0E8E7B0206070AA480178A1704078E070F4
S31508001BF0102020710122611D642000F03DFD0122A4
S31508001C00A11D652000F038FD0122E11D662000F0C7
S31508001C1033FD012204F10801672000F02DFD08209C
S31508001C209EE7B02060709A480178A1704078E0700D
S31508001C30112020710122611D842000F01DFD012262
S31508001C40A11D852000F018FD0122E11D862000F067
S31508001C5013FD012204F108018720DEE700206070E9
S31508001C608C4804216DE710B5884C6078A1286FD0A0
S31508001C70A22870D0A42871D0A62812D0A7281BD0D5
S31508001C80A8281ED0A9282AD0AD286AD0AE287AD08E
S31508001C90AF2859D0B02879D0B1287AD0B2287BD1CC
S31508001CA0FEE70020607001F0F9F9002802D17948B2
S31508001CB0112173E0002010BD0020607001F04CFA7D
S31508001CC0F3E700206070A01C01F05EFA192801D124
S31508001CD0002010BD1A28EDD06E4908705FE0207804
S31508001CE000F1FF01C9B2A01CFEF78AFD2B2804D01B
S31508001CF02C280CD02D280DD019E045F2555004F0AB
S31508001D00D3FB40F6C41004F0D9FB04F0DDFB002039
S31508001D10607010BD45F2555004F0C6FB40F27120C4
S31508001D2004F0CCFB04F0D0FB0020607010BD5949CC
S31508001D30087045F2555004F0B7FB40F2712004F0E4
S31508001D40BDFB04F0C1FB2AE0BDE81040FFF7C8BBA5
S31508001D50BDE810404EE4BDE81040A7E4BDE81040D9
S31508001D60E6E460704A480178A1704078E0700D4852
S31508001D7001880A0A227161714088010AA171E0711D
S31508001D800720207096E7BDE8104033E5BDE810400F
S31508001D90BEE6BDE81040A5E53E48042101700120D5
S31508001DA010BD0000F8FF000800B581B0374840783C
S31508001DB008B900F009F8002001B000BD3348002139
S31508001DC0417000207047000070B5294C204602F08B
S31508001DD0CAFE012002F050FE294D2A4E30798006AF
S31508001DE008D5287818B903F0DFFB01202870307968
S31508001DF0800607D4287828B12348007803F0ACFB7E
S31508001E0000202870214DA320687021480178A97008
S31508001E104178E9708078287103F0A4FE401E80415D
S31508001E20C043C00F687113480088A871194E3078EE
S31508001E30E871207828721048007868720020A87225
S31508001E4004F0F0F9E8720D48007828731248006823
S31508001E506873010AA973000EE8731048008828748D
S31508001E60000A6874FF2030701120287070BD00BF0A
S31508001E70DB080020CE0800204A080020D6080020EB
S31508001E80D9080020A4080020D8080020F00800205F
S31508001E90FCFF0008E5080020500800204E08002036
S31508001EA004F0C4BB30B581B00446012004F0C0FB81
S31508001EB0302815D1DFF84856002028700023012263
S31508001EC01146302001F0EAFF302809D1012201210C
S31508001ED002F052F8302803D10CB12878207030204F
S31508001EE001B030BD30B581B00446012004F0A0FB36
S31508001EF0302815D1DFF80856012028700023012262
S31508001F000146302001F0CAFF302809D101220121FB
S31508001F1002F032F8302803D10CB12878207030202E
S31508001F2001B030BDF0B581B004460D46DFF87865DE
S31508001F30F079B8B9012004F07BFB302819D1DFF815
S31508001F40C0750020387001220221482002F014F8DA
S31508001F5030280ED13878C04330717878C043707114
S31508001F600120F0710CB1307920700DB170792870AC
S31508001F70302001B0F0BD00B581B0012004F058FB57
S31508001F8030280BD1DFF87805062101701021417041
S31508001F90002301220221C22001F080FF01B000BD0A
S31508001FA000B581B0012004F043FB30280BD1DFF8DF
S31508001FB050050621017000214170002301220221EB
S31508001FC0C22001F06BFF01B000BD00B581B0012051
S31508001FD004F02EFB30280BD1DFF82405062101700A
S31508001FE050214170002301220221C22001F056FF30
S31508001FF001B000BD10B50C46002814BF0820042007
S3150800200004F016FB30280FD1DFF8F4040121017023
S315080020108021417001230022022104F007004000BC
S3150800202040F0800001F03AFF10BD10B50C460028BC
S3150800203014BF0820042004F0FBFA30280FD1DFF87B
S31508002040C0040121017000214170012300220221F0
S3150800205004F00700400040F0800001F01FFF10BDAB
S3150800206010B50C46002814BF0820042004F0E0FA36
S3150800207030280DD1DFF88804D2210170012300220F
S31508002080012104F00700400040F0800001F006FF3F
S3150800209010BD10B50C46002814BF0820042004F013
S315080020A0C7FA30280DD1DFF85804D321017001236F
S315080020B00022012104F00700400040F0800001F0F2
S315080020C0EDFE10BD30B581B00446022004F0B0FA2A
S315080020D0302811D1DFF82854002028700122022167
S315080020E0402001F049FF302806D124B12878207015
S315080020F0697808432070302001B030BD30B581B012
S315080021000446012004F094FA302833D1DFF8F0535E
S31508002110052028705520E10700D55420A10701D5D0
S3150800212000F0F300610701D500F0CF00210701D5C3
S3150800213000F03F006870002301220221C02001F050
S31508002140ADFE302816D15520E10600D55420A1064B
S3150800215001D500F0F300610601D500F0CF00210695
S3150800216001D500F03F006870002301220221C22039
S3150800217001F094FE01B030BD2DE9F0470F46144634
S315080021801D46089EDDF824A0DDF82890002814BF17
S315080021900820042004F04CFA302839D107F007004B
S315080021A0400040F08008DFF85873D02038700123CB
S315080021B000220121404601F071FE302828D1002274
S315080021C00A21404601F0D8FE302821D12CB1787872
S315080021D02080B97840EA012020802DB1F87828803F
S315080021E0397940EA012028802EB178793080B9798A
S315080021F040EA01203080BAF1000F02D0F8798AF857
S315080022000000B9F1000F02D0387A89F800003020B2
S31508002210BDE8F0872DE9F04186B001F01BFE0128E4
S3150800222000F03E81A04D287A0F283AD8DFE800F062
S31508002230080F1214171B1F2124282B2D3032343671
S31508002240002700263C462C606C612C6129E001279A
S31508002250002625E00227FBE70327002620E00027C3
S3150800226001263C461DE001270126002419E0022725
S31508002270FAE703270126F8E700270026012410E0DD
S3150800228001270026EDE70227F7E703270026F5E7EB
S31508002290002704E00127E3E7022700E003270126D9
S315080022A0344646EA44005FFA80F803A802900DF126
S315080022B00D0001900DF10E00009004AB0DF1120215
S315080022C047EA8601C9B2E0B2FFF756FF302802D0C6
S315080022D0332821D0E4E0BDF8100038B9BDF80E0067
S315080022E04FF4C87190FBF1F0282806DA2869012115
S315080022F095F908209140084328616869012195F9F4
S31508002300082091400843686118F80500401C08F841
S3150800231005000020687211E0687A48B968890121C9
S3150800232095F908209140084208D002206872B7E063
S31508002330FF306872C0B2002840F0B280287A0F28B1
S3150800234040F0A98000A802F0F5FB002840F0A8801C
S31508002350E87960BB012004F06BF9302815D03028E5
S3150800236001D00020A8712869AA7905210A4201D15D
S3150800237040F080709DF8001004291AD0052901D074
S315080023800B2933D1022301211BE05D4C002020706C
S3150800239001220221482001F0EFFD3028DFD1207804
S315080023A0C04328716078C04368710120E8712879B4
S315080023B0D8E70323012102F00504052C01D040F0DB
S315080023C0807002F00204D60720D52E789CB19E4272
S315080023D001DA40F080506C788C4201D240F000500F
S315080023E0002E01D140F08070CCB916E00023002100
S315080023F040F00070E5E79E4201DA40F08050002E7A
S3150800240001D140F080706C784CB106E02CB92C787C
S315080024100CB140F080706C780CB140F0807002F01E
S315080024200804520719D5AA786CB19A4201DA40F025
S315080024308040EB788B4201D240F000400AB940F068
S3150800244080709BB910E09A4201DA40F080400AB9E0
S3150800245040F08070E97849B106E02CB9A97809B14D
S3150800246040F08070E97809B140F08070286104F086
S3150800247002F82869E968884203D0224901220A70CD
S31508002480E86068696989884203D01E4901220A7092
S31508002490688103F0FBFF287A401C00F00F002872C1
S315080024A006B0BDE8F08100004408002010B501F030
S315080024B0D1FC012821D0022004F0BAF830280ED128
S315080024C00F4C0020207001220221402001F054FD0B
S315080024D0302804D1207861780843084908700749EC
S315080024E0087800F07F0008704A78824203D0054ACF
S315080024F0012313704870FFF701FE10BDD6080020AF
S315080025005C080020E408002030B583B00320ADF84D
S3150800251000008DF8020010208DF80300DFF8184639
S3150800252000A9204603F07AFA01220121204603F089
S31508002530E0FADFF808560021284603F028FF0022B3
S315080025400121022003F072FB00220121204603F03C
S31508002550D0FA01A9042003F07BFB0122114620468C
S3150800256003F0C7FA0021284603F011FF01220221D1
S31508002570204603F0BEFA03B030BD2DE9F04782B01D
S31508002580064600220121022003F050FBDFF8A88549
S3150800259000220121404603F0ACFA00A9052003F009
S315080025A057FB054603F03DFC00F120049DF80000AA
S315080025B0C00714D500A9002003F04AFB054303F021
S315080025C030FC8442F2D201220121404603F091FAFE
S315080025D00021DFF8680503F0DAFE05250CE0012284
S315080025E00121404603F085FADFF850A50021504640
S315080025F003F0CDFEEDB20DB128463AE000220121E6
S31508002600022003F013FB00220121404603F071FA71
S315080026100DF101019F2003F01BFB054601A90020CF
S3150800262003F016FB81460DF10501002003F010FBAF
S3150800263007460DF10601002003F00AFB04460122B5
S315080026400121404603F055FA0021504603F09FFE4B
S315080026509DF804000004306001A83168427841EA18
S315080026600221316080780843306049EA0500384322
S31508002670204302B0BDE8F0872DE9F04782B0044652
S315080026800F46154600220121022003F0CFFADFF893
S31508002690A88400220121404603F02BFA0DF101011E
S315080026A0052003F0D5FA064603F0BBFB00F1200A25
S315080026B09DF80100C00715D50DF10101002003F0B2
S315080026C0C7FA064303F0ADFB8245F1D20122012188
S315080026D0404603F00EFA0021DFF8600403F057FEC7
S315080026E005260CE001220121404603F002FADFF834
S315080026F04CA40021504603F04AFEF6B20EB130460D
S3150800270035E000220121022003F090FA002201217F
S31508002710404603F0EEF900A9032003F099FA0646AD
S3150800272000A9200CC0B203F093FA814600A9200A3A
S31508002730C0B203F08DFA49EA060140EA010600A98B
S31508002740E0B203F085FA06433DB13946002003F0AE
S315080027507FFA06437F1C6D1EF7D1012201214046F0
S3150800276003F0C7F90021504603F011FEF0B202B09B
S31508002770BDE8F0872DE9F04782B004468A4615463B
S3150800278000220121022003F051FADFF8AC6300228F
S315080027900121304603F0ADF900A9052003F058FAE7
S315080027A0074603F03EFB00F120089DF80000C0072D
S315080027B013D500A9002003F04BFA074303F031FBB9
S315080027C08045F2D201220121304603F092F9002118
S315080027D0DA4803F0DCFD05270CE00122012130462A
S315080027E003F087F9DFF854830021404603F0CFFD54
S315080027F0FFB20FB1384654E000220121022003F04F
S3150800280015FA00220121304603F073F900A90620C3
S3150800281003F01EFA074601220121304603F069F942
S315080028200021404603F0B3FD002FE3D10022012129
S31508002830022003F0FBF900220121304603F059F982
S315080028400DF101010A2003F003FA07460DF1010113
S31508002850200CC0B203F0FCF981460DF10101200AF3
S31508002860C0B203F0F5F949EA070140EA01070DF19C
S315080028700101E0B203F0ECF9074345B10DF101019E
S315080028801AF8010B03F0E4F907436D1EF6D101228D
S315080028900121304603F02DF90021404603F077FD6B
S315080028A0F8B202B0BDE8F0872DE9F04381B00646DC
S315080028B045F25558404603F0F7FD41F2883003F0DB
S315080028C0FDFD03F001FE00220121022003F0AEF90E
S315080028D0994C00220121204603F00BF900A9052096
S315080028E003F0B6F9054603F09CFA00F120079DF8B7
S315080028F00000C00713D500A9002003F0A9F9054375
S3150800290003F08FFA8742F2D201220121204603F012
S31508002910F0F80021894803F03AFD052509E001226F
S315080029200121204603F0E5F80021844803F02FFD35
S31508002930EDB203F0C9FD404603F0B6FD40F2712042
S3150800294003F0BCFD03F0C0FD0DB128464CE00022A3
S315080029500121022003F06AF900220121204603F032
S31508002960C8F800A9062003F073F9054601220121DB
S31508002970204603F0BEF8DFF8C4910021484603F06C
S3150800298006FD002DE1D100220121022003F04EF9B7
S3150800299000220121204603F0ACF80DF10101DB20ED
S315080029A003F056F905460DF10101300CC0B203F0EB
S315080029B04FF980460DF10101300AC0B203F048F91B
S315080029C007460DF10101F0B203F042F9064601226D
S315080029D00121204603F08DF80021484603F0D7FC74
S315080029E048EA05003843304301B0BDE8F0832DE9D5
S315080029F0F04381B0064645F25558404603F054FD6B
S31508002A0041F28837384603F059FD03F05DFD002290
S31508002A100121022003F00AF9474C00220121204631
S31508002A2003F067F800A9052003F012F9054603F03C
S31508002A30F8F93F189DF80000C00713D500A9002033
S31508002A4003F006F9054303F0ECF98742F2D20122B6
S31508002A500121204603F04DF80021384803F097FC81
S31508002A60052509E001220121204603F042F800214C
S31508002A70324803F08CFCEDB203F026FD404603F025
S31508002A8013FD40F2712003F019FD03F01DFD0DB191
S31508002A9028464CE000220121022003F0C7F8002254
S31508002AA00121204603F025F800A9062003F0D0F8F6
S31508002AB0054601220121204603F01BF8DFF87C9029
S31508002AC00021484603F063FC002DE1D100220121D4
S31508002AD0022003F0ABF800220121204603F009F892
S31508002AE00DF10101D82003F0B3F805460DF10101F7
S31508002AF0300CC0B203F0ACF880460DF10101300A83
S31508002B00C0B203F0A5F807460DF10101F0B203F0D3
S31508002B109FF8064601220121204602F0EAFF00211D
S31508002B20484603F034FC48EA05003843304301B010
S31508002B30BDE8F08300000000000C014000380040AA
S31508002B402DE9F0470026DFF85045DFF840A548B1E3
S31508002B50534613F8015B04EB05152D79AD19AEB292
S31508002B60401EF6D1002588465AB108EB0A00401CDB
S31508002B7010F8011B04EB011109794D19ADB2521E6B
S31508002B80F6D118F80A0004EB001007790020FDF7C3
S31508002B904BFE2C2877D10B20FDF746FE2C2872D148
S31508002BA0DFF8EC944FF48041484602F09EFF8EB160
S31508002BB0761E4FF48051484602F099FF4FF4805133
S31508002BC0484602F092FF4FF48051484602F08FFFC4
S31508002BD0002EEDD118F80A0004EB0010B0F80880B2
S31508002BE04FB32A4C7F1E5FEAC8704FF480414846AF
S31508002BF002D502F07AFF01E002F079FF4FEA5808A1
S31508002C0047B93DB94FF40051484602F06EFF2078A7
S31508002C10401C20704FF48051484602F068FF4FF47C
S31508002C208051484602F061FF4FF48051484602F051
S31508002C305EFF002FD6D14FF48041484602F055FF7B
S31508002C40DDB1124C6D1E07D14FF40051484602F013
S31508002C504CFF2078401C20704FF48051484602F003
S31508002C6046FF4FF48051484602F03FFF4FF480512B
S31508002C70484602F03CFF002DE4D10420FDF7D4FDC0
S31508002C802C2800D10020BDE8F08700BF900700205F
S31508002C90DFF8F81391F82C20824201D3002A02D1DA
S31508002CA04FF0FF307047405C0001DFF8EC134058E6
S31508002CB07047DFF8D80390F82C0070472DE9F04FDD
S31508002CC081B0044602F08CFC00202070FDF7ACFDB4
S31508002CD006462C2E54D10420FDF7A6FD06462C2EBA
S31508002CE04ED1DFF8C8800026DFF8A0B3DFF8A8A326
S31508002CF0DFF89C9319E0401CC0B210310A684AB14B
S31508002D00CB682B409A42F6D1217801F80B0021783E
S31508002D10491C2170010151F80A1031B9322621786F
S31508002D2001F80B002078401C2070002500275FEA78
S31508002D30C8704FF48041484602D502F0D6FE01E03D
S31508002D4002F0D5FE4FEA58084FF48051484602F083
S31508002D50CEFE4FF40041484602F0C0FE401E8041B8
S31508002D60C043C00FB84005434FF48051484602F0AF
S31508002D70BCFE7F1C202FDADB15F1010F0DD13026A2
S31508002D800020FDF751FDC148217880F82C1002F08B
S31508002D9071FC304601B0BDE8F08F0DB93126EFE77A
S31508002DA002488542ECD000205146A7E7FF000F53A2
S31508002DB02DE9F047044602F013FC0020FDF734FD28
S31508002DC007462C2F40F099800B20FDF72DFD07466E
S31508002DD02C2F40F0928000250027DFF8B08298F863
S31508002DE02C000028AC4A0AD017F8081002EB01118B
S31508002DF0097949198DB27F1C8742F5DB0DB933274E
S31508002E007BE0DFF88C924FF48041484602F06DFE75
S31508002E104FF48051484602F06AFE4FF48051484606
S31508002E2002F063FE4FF48051484602F060FE6D1EC4
S31508002E30EED10420FDF7F8FC07462C2F5DD10020C3
S31508002E402070DFF850A25546002705E02078401C80
S31508002E5020707F1C2A2F21DAE8074FF48041484664
S31508002E6002D502F042FE01E002F041FE6D084FF481
S31508002E708051484602F03BFE4FF40041484602F0B6
S31508002E802DFE461EB641F043C60F4FF48051484604
S31508002E9002F02BFE002ED9D045F000451F27E80783
S31508002EA04FF48041484602D502F01FFE01E002F0C9
S31508002EB01EFE6D084FF48051484602F018FE4FF486
S31508002EC00041484602F00AFE08B145F000454FF4B5
S31508002ED08051484602F009FE7F1EE0D10020FDF72A
S31508002EE0A3FC07462C2F08D1554588D198F82C0005
S31508002EF02178884214BF3327002702F0BBFB3846E7
S31508002F00BDE8F0872DE9F04702F06AFB0020FDF7DF
S31508002F108BFC04462C2C4AD10B20FDF785FC044675
S31508002F202C2C44D15A4C4FF48041204602F0DDFD4A
S31508002F300025DFF864A1DFF8548100E06D1C98F8DD
S31508002F402C0085422CDA15F808000AEB00100779E0
S31508002F500026B146012F1ADB4FF48051204602F0B5
S31508002F60C6FD4FF40041204602F0B8FD401E8041E0
S31508002F70C043C00F00FA09F03043C6B24FF480517F
S31508002F80204602F0B2FD09F10109B945E4DB06F075
S31508002F9003000128D2D00020FDF746FC342406E0C1
S31508002FA00020FDF741FC04462C2C00D1002402F039
S31508002FB061FB2046BDE8F0872DE9F04F81B002F0AD
S31508002FC00FFBDFF8C8A09AF82C0008B9362557E099
S31508002FD00020FDF729FC05462C2D51D10026574621
S31508002FE0DFF8AC80DFF8AC90DFF8ACB002E0761C16
S31508002FF0F6B27F1C9AF82C0086423ADA801BFF301C
S31508003000C4B2224631463046FFF79AFD0546BDBB97
S31508003010301939780BEB0111C988081810F120040A
S315080030204D46E4D0641EE8074FF48041404602D579
S3150800303002F05BFD01E002F05AFD6D084FF4805185
S31508003040404602F054FD4FF40041404602F046FD6A
S3150800305008B145F000454FF48051404602F045FD61
S31508003060002CDFD14D45C2D00020FDF7DDFB35250C
S3150800307006E00020FDF7D8FB05462C2D00D10025DB
S3150800308002F0F8FA284601B0BDE8F08F14080020CF
S31508003090001401404118E77DAC5C000810B54FF0FC
S315080030A00060D0F8001111F1010F01D1002010BD08
S315080030B0DFF850442146202250F8043B41F8043BEF
S315080030C050F8043B41F8043B50F8043B41F8043BF4
S315080030D050F8043B41F8043B521EEDD1204610211E
S315080030E00268D0F800310360C0F800214268D0F8C1
S315080030F004314360C0F804218268D0F8083183603F
S31508003100C0F80821C268D0F80C31C360C0F80C2199
S315080031101030491EE4D103F0AEF901214FF00060EA
S3150800312002F0F4FA10B903F0B1F9BFE74FF40072F0
S3150800313021464FF0006002F027FB0028F3D003F089
S31508003140A5F900F065FC10B9042000F0F9FD02F0BD
S31508003150C1FE012010BD000000B581B003F08BF957
S3150800316000F0D2F918B903F091F9002008E03F21E0
S31508003170044802F0CBFA0028F5D003F087F90120BD
S3150800318001B000BD00000108F0B589B005462878F1
S31508003190532801D010206BE0A878D030C0B20A2896
S315080031A000D3F930E978D031C9B20A2900D3F93108
S315080031B001EB0014E4B2002002226100091D032974
S315080031C017DBAB1C1E78D036F6B20A2E00D3F936BA
S315080031D05F78D037FFB20A2F00D3F93700EB061015
S315080031E03818C0B2921CD2B29B1C8A42EADBFF286E
S315080031F001D014203CE06878302808D0332839D02C
S31508003200372800F03D81392800F02281C2E7287A64
S31508003210D030C0B20A2800D3F9300006000DB94CE8
S31508003220A4F80002697AD031C9B20A2900D3F93163
S31508003230C9B20843A4F80002A97AD031C9B20A294A
S3150800324000D3F931C9B240EA0130A4F80002E97A9C
S31508003250D031C9B20A2900D3F931C9B240EA0120EE
S31508003260A4F8000202F066FF4020A4F80202192022
S3150800327009B0F0BDC9B2284602F078FF2879D030E7
S31508003280C0B20A2800D3F9306979D031C9B20A29FF
S3150800329000D3F931C0B2C9B2090641EA0070A9796A
S315080032A0D031C9B20A2900D3F931EA79D032D2B27B
S315080032B00A2A00D3F932C9B21206120A42EA0151A1
S315080032C00843297AD031C9B20A2900D3F9316A7A72
S315080032D0D032D2B20A2A00D3F932C9B21206120C77
S315080032E042EA01310843A97AD031C9B20A2900D382
S315080032F0F931EA7AD032D2B20A2A00D3F932C9B2FF
S31508003300D2B242EA011141EA0006FB34E4B27B4834
S31508003310864275D20020611004EB91718910B4EBD6
S3150800332081016BD161000129A1DB05F20C02754C04
S31508003330137803F1D006F6B20A2E00D3F936B4F89C
S3150800334002321D463606360D44F825605678D036C4
S31508003350F6B20A2E00D3F93654F82570F6B23E4373
S3150800336044F825609778D037FFB20A2F00D3F9378B
S31508003370FFB246EA073644F82560D778D037FFB259
S315080033800A2F00D3F937FFB246EA072644F8256024
S315080033901779D037FFB20A2F00D3F937FFB246EABA
S315080033A0075644F825605779D037FFB20A2F00D35D
S315080033B0F937FFB246EA074644F825609779D037C9
S315080033C0FFB20A2F00D3F937FFB246EA077644F868
S315080033D02560D779D037FFB20A2F00D3F937FFB265
S315080033E046EA076644F825605B1CA4F802320830F2
S315080033F0C0B208328842BFF63AAF99E7172037E7D6
S31508003400012C16DB05F20C0000A922460378D033FE
S31508003410DBB20A2B00D3F9334578D035EDB20A2D45
S3150800342000D3F93505EB031301F8013B801C521E46
S31508003430ECD103F020F8224600A9304602F0A4F9A0
S3150800344018B903F023F8112012E703F01FF80EE766
S315080034502B484FF4807202F10062102352F8044B95
S3150800346040F8044B52F8044B40F8044B52F8044B0E
S3150800347040F8044B52F8044B40F8044B5B1EEDD160
S31508003480C9B2284602F072FE02F08EFE1D4CB4F850
S31508003490001288427FF4ADAE02F0EDFF20464FF0F1
S315080034A00061102251F8043B40F8043B51F8043BF4
S315080034B040F8043B51F8043B40F8043B51F8043B00
S315080034C040F8043B521EEDD102F0D5FF01214FF022
S315080034D0006002F01BF910B902F0D8FFB1E74FF40B
S315080034E0007221464FF0006002F04EF90028F3D032
S315080034F002F0CCFF02F0CAFF1A20B9E60004000861
S31508003500000500200004002000B5C1B000A84FF057
S315080035100061102251F8043B40F8043B51F8043B83
S3150800352040F8043B51F8043B40F8043B51F8043B8F
S3150800353040F8043B521EEDD102F09DFF01214FF0E9
S31508003540006002F0E3F818B902F0A0FF00200BE0D3
S315080035504FF4807200A94FF0006002F015F90028B8
S31508003560F2D002F093FF012041B000BD30B581B022
S31508003570DFF8B44400202071207207202070FF2055
S3150800358060710020E0700D20607002F055F9451C4E
S3150800359002F093F9400040EA452048F280010843CA
S315080035A0A08101B030BD000010B5DFF87C44A079D9
S315080035B00D2801D30020A071A079E179814202D0BB
S315080035C001212172E071044951F820008047A07159
S315080035D00020207210BD00BFE064000800B581B06D
S315080035E00A2000F0A2FA00A800F047FB012800D044
S315080035F0002001B000BD30B581B00A2000F095FA70
S3150800360002F01AF9DFF82044451C02F056F940008A
S3150800361040EA452048F280010843A08100A800F04E
S315080036202CFB18B1022807D006D307E09DF8000046
S315080036300002E081022006E0012004E00820607113
S3150800364005202070002001B030BD10B582B00A20D8
S3150800365000F06BFA00A800F010FB18B102280FD092
S315080036600CD314E0DFF8C003C1899DF8002011438C
S31508003670C181828991420ED1042030E001202EE0DA
S31508003680DFF8A403092141710521017026E0DFF85E
S3150800369098030821F7E783895B1C994201D1032027
S315080036A01DE0C07810F03F030AD048F2805444EA7F
S315080036B0430300060ED59942DED0581C8142EED04F
S315080036C048F28000814207D048F2810001408142D9
S315080036D004D1D3E79942F3D1062000E0002002B0D6
S315080036E010BD10B5DFF840432078042805D12079AD
S315080036F018B10820207000202071207800F0F3FA15
S315080037002078401F032801D804202070012010BD0E
S3150800371000B581B00A2000F008FA00A800F0ADFA5A
S3150800372018B1022815D012D315E09DF8000001281B
S3150800373014D0022816D0032812D0092817D0BA4860
S315080037400021417105210170002001B000BD012052
S31508003750FBE70420F9E7B4480821F2E70520F4E777
S315080037600C20F2E7B048042141700720EDE70A2053
S31508003770EBE710B582B00A2000F0D7F900A800F0F0
S315080037807CFA18B1022811D00ED316E0A64C9DF883
S315080037900000400614D49DF80000E070042000F0F4
S315080037A0A2FA042002B010BD0120FBE79E4C0920B6
S315080037B06071052020700020F4E79B4C0820F7E78D
S315080037C0052000F090FA1620F2E700B581B00A202D
S315080037D000F0ABF900A800F050FA18B102280CD096
S315080037E009D30CE090489DF8001002290AD1062159
S315080037F0417007200BE0012009E0062007E08A480F
S31508003800082100E00021417105210170002001B066
S3150800381000BD10B50A2000F088F9834C04F10B00AE
S3150800382000F02BFA002803D002280AD007D30AE0B2
S31508003830E07A607220740120A072082010BD012071
S3150800384010BD092003E0052000F04DFA082060713C
S3150800385005202070002010BD00B581B00A2000F0B8
S3150800386064F900A800F009FA18B1022817D014D391
S315080038701FE06D48417A9DF8002051184172817AFF
S315080038800A189DF800301374491C8172C17AFF31F9
S31508003890C172C9B299B9092012E0012010E0624844
S315080038A009214171052101705748006880470020A9
S315080038B006E0052000F017FA5B480821F1E7082022
S315080038C001B000BD10B582B00A2000F02EF900A89C
S315080038D000F0D3F918B1022818D015D319E0524CC4
S315080038E09DF80000617AC943491CC9B2884217D0BD
S315080038F0052000F0F8F90A2060710520207042487A
S315080039000068804700201AE0012018E0464C09208C
S31508003910F2E7052000F0E7F9434C08206071ECE770
S31508003920084800688047012803D1052000F0DBF924
S31508003930E3E76078042801D100F0D5F9607802B091
S3150800394010BD00BFAC66000830B581B0364C1548CE
S3150800395000688047012803D10520207000201EE05A
S31508003960022000F0C0F9002060720025207C401C6F
S3150800397001280BDB2819007C617A4118617200F076
S31508003980B2F96D1C207C401C8542F3DB607AC0438B
S31508003990401CC0B200F0A7F91E20A0700B2001B091
S315080039A030BD00BFB066000810B582B01E4C207A44
S315080039B010B10A2000F0B9F8A07800F1FF01A17053
S315080039C028B9092060710520207000201AE000A897
S315080039D000F053F918B102280BD008D30BE09DF874
S315080039E00000042809D005280BD00020EAE70120AA
S315080039F008E00B2006E00820E4E72070024800688B
S31508003A008047042002B010BDB46600080D20704738
S31508003A1005488179092904D14078062801D1012071
S31508003A207047002070470000E008002070B588B095
S31508003A3001214FF4804000F07BFE25208DF804001C
S31508003A4000208DF805008DF8060001208DF8070086
S31508003A5001A802F0EBF94FF40074ADF8004003201A
S31508003A608DF8020018208DF80300C64D00A92846D7
S31508003A7001F0D4FF4FF48066ADF8006004208DF89D
S31508003A80030000A9284601F0C9FF4FF40060ADF80D
S31508003A90000003208DF8020010208DF8030000A90D
S31508003AA0284601F0BBFF00224FF40061284602F0C9
S31508003AB020F84FF4E13002904FF48050ADF80C0036
S31508003AC00020ADF80E00ADF81060ADF812000C201D
S31508003AD0ADF814000020ADF81600ADF81800ADF8E2
S31508003AE01A40ADF81C00A84C02A9204601F08CFB30
S31508003AF092486421C0F88811002180F8011180F8E5
S31508003B00021180F8001180F8041180F8051180F878
S31508003B100311012240F22551204601F0C5FB01217F
S31508003B20204601F0B7FB08B070BD8449C1F888018A
S31508003B307047F0B581B0944C40F225563146204680
S31508003B4001F0DFFB002849D07C4D95F8050105EB0F
S31508003B504000002141700221204601F0C6FB48B111
S31508003B600221204601F0C8FB95F8050105EB400047
S31508003B70012117E00821204601F0B7FB48B90421C6
S31508003B80204601F0B2FB20B90121204601F0ADFB29
S31508003B9048B10D21204601F0AFFB95F8050105EB6C
S31508003BA040000321417095F80571204601F099FB04
S31508003BB005F8170095F80501401C85F80501C0B2FF
S31508003BC0802802D1002085F8050195F80301401CDC
S31508003BD085F803013146204601F0B2FB40F227760C
S31508003BE03146204601F08DFB58B3544D95F8000137
S31508003BF0C0B195F80201401990F80811204601F065
S31508003C006CFB95F80201401C85F80201C0B28028B9
S31508003C1002D1002085F8020195F80001FF3085F8E9
S31508003C2000010AE000223146204601F03DFB012250
S31508003C3040F22661204601F037FB3146204601F066
S31508003C407FFB40F226652946204601F05AFB90B1D3
S31508003C503A4890F8000150B900222946204601F05A
S31508003C6023FB00224FF40061464801F042FF294633
S31508003C70204601F065FB01B0F0BD70B505462F4C36
S31508003C8094F8030178B902F0CCF8064602F0C9F8B0
S31508003C90D4F88811801B814201D2022070BD94F8A5
S31508003CA003010028F2D002F0E6FB94F8040114F8A8
S31508003CB01000287094F8040104EB4000457894F845
S31508003CC00401401C84F80401C0B2802802D10020F7
S31508003CD084F8040194F80301FF3084F8030102F024
S31508003CE0D5FB284670BD10B5044601224FF4006185
S31508003CF0244801F0FEFE02F0BEFB104890F80111C0
S31508003D00091881F8084190F80111491C80F8011139
S31508003D10C9B2802902D1002180F8011190F800115A
S31508003D20491C80F80011012240F22771164801F05B
S31508003D30BBFABDE8104002F0A9BB0000040600204B
S31508003D4070B504460F4D01224FF40061284601F074
S31508003D50D0FE0D4E8021304601F0C7FA0028F9D072
S31508003D602146304601F0B9FA4021304601F0BDFA45
S31508003D700028F9D000224FF400612846BDE87040BB
S31508003D8001F0B7BE000801400038014010B582B006
S31508003D9001214FF4001000F0D7FCC020ADF8000058
S31508003DA003208DF802001C208DF803003A4C00A968
S31508003DB0204601F033FE2020ADF8000003208DF8E0
S31508003DC0020010208DF8030000A9204601F026FE07
S31508003DD04FF48070ADF8000003208DF8020004202F
S31508003DE08DF8030000A9204601F018FE9948012124
S31508003DF0416102B010BD000010B584B0964C002198
S31508003E00204600F047FF204600F0C8FE0020ADF827
S31508003E1000004BF6FF70ADF802003020ADF8040044
S31508003E204FF48060ADF806004FF48040ADF8080006
S31508003E300548039000A9204600F0D2FE012120463D
S31508003E4000F028FF04B010BDA086010081480121BA
S31508003E50416170477F484069401E8041C043C00F9A
S31508003E60704730B581B07B4C606990B101280ED19E
S31508003E70094D00222021284601F03BFEFFF7BCFF32
S31508003E8001222021284601F034FE022000E000200D
S31508003E90606101B030BD0000000C01402DE9F24F11
S31508003EA083461546994600266A4F786908B1342034
S31508003EB05BE0DFF8A4810121404600F0F5FE01F041
S31508003EC0B0FF841CDFF894A15146404600F02DFF50
S31508003ED058B901F0A6FF8442F6D215B9FFF78CFF50
S31508003EE001E00120786133203FE000225946404630
S31508003EF000F0FFFE01F095FF841CDFF874A0514620
S31508003F00404600F012FF20B901F08BFF8442F6D23A
S31508003F10E3E7B9F1010F03D10121404600F0FBFEAA
S31508003F209DF80000864214DAF15D404600F0DCFE9A
S31508003F30761C01F076FF841CDFF838A0514640460F
S31508003F4000F0F3FE0028EBD101F06BFF8442F5D2B6
S31508003F50C3E7B9F1010F03D10121404600F0D1FEB4
S31508003F600121404600F0ABFE302001B0BDE8F08FDD
S31508003F7082000700840007002DE9F04F81B08346D0
S31508003F80894615460026334F786908B134205AE029
S31508003F90DFF8C4800121404600F086FE01F041FFAB
S31508003FA0841CDFF8B8A05146404600F0BEFE58B95A
S31508003FB001F037FF8442F6D215B9FFF71DFF01E07D
S31508003FC00120786133203EE001225946404600F040
S31508003FD090FE01F026FF841CDFF870A0514640468B
S31508003FE000F0A3FE20B901F01CFF8442F6D2E3E7F5
S31508003FF00121404600F06EFEB9F1000F22D0CB46F3
S31508004000ABF1010ADFF84890564507D10021404632
S3150800401000F060FE0121404600F051FE01F001FF6C
S31508004020841C4946404600F080FE20B901F0F9FE9E
S315080040308442F6D2C0E7404600F058FEF055761C9A
S315080040405E45E1DB302001B0BDE8F08F02000300D9
S31508004050400003005C0800200054004001000300F3
S315080040607047704709490A6802F038020A600A6808
S3150800407010430860704705490A6822F010020A6072
S315080040800A681043086070470000000000200240DC
S315080040900348DFF85C120160DFF8581201607047C8
S315080040A00420024030B481B0014640F6FF7214463F
S315080040B0DFF838321868C00704D5012000250095B6
S315080040C0FF250DE01868400701D5022021E0186891
S315080040D0C00601D503201CE004201AE0009D6D1ED1
S315080040E00095009D002DF9D11D68ED0709D41868C3
S315080040F0400701D5022004E01868C0064CBF03201B
S315080041000420641E012802D1002CD7D100E004B98E
S31508004110052004283ED1586840F00200586099608E
S31508004120586840F0400058601868C00704D5012058
S3150800413000210091FF210DE01868400701D50220F3
S3150800414021E01868C00601D503201CE004201AE007
S315080041500099491E009100990029F9D11968C907E3
S3150800416009D41868400701D5022004E01868C0067B
S315080041704CBF03200420521E012802D1002AD7D1A1
S3150800418000E002B90520012804D0596841F6FD72FD
S315080041901140596001B030BC704730B481B0024656
S315080041A00F24524B1868C00704D501200025009536
S315080041B0FF250DE01868400701D5022021E01868A0
S315080041C0C00601D503201CE004201AE0009D6D1EE0
S315080041D00095009D002DF9D11D68ED0709D41868D2
S315080041E0400701D5022004E01868C0064CBF03202A
S315080041F00420641E012802D1002CD7D100E004B99E
S31508004200052004286FD1586840F0010058601180D5
S315080042100F241868C00704D5012000250095FF253E
S315080042200DE01868400701D5022021E01868C0068D
S3150800423001D503201CE004201AE0009D6D1E0095A0
S31508004240009D002DF9D11D68ED0709D418684007AF
S3150800425001D5022004E01868C0064CBF03200420DC
S31508004260641E012802D1002CD7D100E004B905202C
S31508004270042831D1080C50800F211868C00704D5CE
S31508004280012000220092FF220DE01868400701D5A0
S31508004290022021E01868C00601D503201CE004208E
S315080042A01AE0009A521E0092009A002AF9D11A685A
S315080042B0D20709D41868400701D5022004E0186817
S315080042C0C0064CBF03200420491E012802D100293C
S315080042D0D7D100E001B90520012804D0596841F674
S315080042E0FE721140596001B030BC70470C20024084
S315080042F023016745AB89EFCD01490860704700BFC8
S315080043000C2002401248002141800170002000F074
S3150800431053BA00000E480178062913D8DFE801F0E1
S315080043200406080A0C0E100001210CE002210AE01E
S31508004330032108E0042106E0052104E0062102E045
S31508004340072100E000210170007800F0ABBA0000F8
S31508004350CC0800202DE9F0410546082D1ED205EBB4
S3150800436085004600814FF05B02F046F90446884610
S315080043707F4830F8150002F03FF97E4A7E4B00F080
S31508004380E1FC0022404B01F0D5FA2246434601F0F3
S31508004390D1FA02F03DF80004400CF053BDE8F08174
S315080043A02DE9F0410546082D1ED205EB850046008D
S315080043B06E4FF05B02F020F9044688466C4830F8E8
S315080043C0150002F019F96B4A6B4B00F0BBFC002292
S315080043D0064B01F0AFFA2246434601F0ABFA02F06B
S315080043E017F80004400CF053BDE8F0810004B04013
S315080043F02DE9F0410546082D1ED205EB850046003D
S315080044005A4FF05B02F0F8F804468846584830F8E8
S31508004410150002F0F1F8574A574B00F093FC0022BA
S31508004420194B01F087FA2246434601F083FA01F058
S31508004430EFFF0004400CF053BDE8F0812DE9F04190
S315080044400546082D1ED205EB85004600474FF05B52
S3150800445002F0D2F804468846454830F8150002F0BE
S31508004460CBF8444A444B00F06DFC0022064B01F0A1
S3150800447061FA2246434601F05DFA01F0C9FF0004DD
S31508004480400CF053BDE8F0810088A3402DE9F041C7
S315080044900546082D1ED205EB85004600334FF05B16
S315080044A002F0AAF804468846314830F8150002F0AA
S315080044B0A3F8304A304B00F045FC0022194B01F0B6
S315080044C039FA2246434601F035FA01F0A1FF000405
S315080044D0400CF053BDE8F0812DE9F0410546082D62
S315080044E01ED205EB85004600204FF05B02F084F8EB
S315080044F0044688461E4830F8150002F07DF81D4A25
S315080045001D4B00F01FFC0022064B01F013FA224651
S31508004510434601F00FFA01F07BFF0004400CF0530C
S31508004520BDE8F08100C092402DE9F0410546082D0E
S315080045301AD205EB850046000C4FF05B02F05CF8DA
S31508004540044688460A4830F8150002F055F8094A24
S31508004550094B00F0F7FB2246434601F0EBF901F060
S3150800456057FF0004400CF053BDE8F081F009002025
S315080045708C08002085EB51B81E85E33F8948002149
S31508004580C16001611421416100218161C161016835
S3150800459041F0010101604168084A11404160016823
S315080045A0074A11400160016821F4802101604168D1
S315080045B021F4FE0141600021816070470000FFF888
S315080045C0FFFFF6FE77490A6822F480320A600A6815
S315080045D022F480220A60B0F5803F03D0B0F5802F20
S315080045E004D07047086840F4803002E0086840F458
S315080045F0A0200860704700000C486A490A6802F45F
S315080046000032521E9241D243D20F02704268521CA7
S315080046104260027812B94268FF2AEFD1086800F4AE
S315080046200030401E8041C043C00F7047B8080020C4
S315080046303E4A136823F47C131843084310607047F6
S3150800464001490860704700BF6000424237490A685E
S31508004650920892001043086070473448006800F0DA
S315080046600C00704731490A6822F0F00210430860CE
S3150800467070472E490A6822F4E062104308607047C2
S315080046802A490A6822F4605242EAC0000860704764
S3150800469026490A6822F44042104308607047000021
S315080046A010B422490A6802F00C02082A01D01C4AF2
S315080046B00FE00A6802F47012920C921C0B68DB0376
S315080046C001D4184B04E00B689B034CBF154B144BE5
S315080046D05A4302600B68144A046803F0F0031B0986
S315080046E09B5C24FA03F343600C6804F4E064240A30
S315080046F0A45CE34083600B68446803F46053DB0AF8
S315080047009B5C24FA03F3C360096801F4404102EB99
S315080047109131097CB3FBF1F1016110BC704700BF10
S3150800472000127A0000093D00746600080410024071
S31508004730044A0029116814BF084321EA00001060E2
S31508004740704700BF18100240044A0029116814BFB8
S31508004750084321EA00001060704700BF1C100240A1
S31508004760044A0029116814BF084321EA00001060B2
S31508004770704700BF1010024041090A4A012901D1B9
S31508004780116803E002290CBF116A516A012200F080
S315080047901F0002FA00F00840401E8041C043C00FC7
S315080047A070470000001002400248016841F080711D
S315080047B0016070472410024030B587B004467F4830
S315080047C000210180364804217B4A128843881D4609
S315080047D095FBF2F55B1B0380C3881D4695FBF2F536
S315080047E0EB18838083891D4695FBF2F55B1B438195
S315080047F0038A1D4695FBF2F5EB18C38100F21400F7
S31508004800491EE3D112208DF8000000208DF8010022
S315080048108DF8020001208DF8030000A801F006FBC0
S315080048200020FFF735FF01214FF40070FFF780FFE6
S3150800483000200190ADF808004FF460200390002096
S31508004840049001208DF81400344D01A9284600F083
S3150800485081FD052301222146284600F0CEFD0121CF
S31508004860284600F099FD284600F0A8FD284600F0E5
S31508004870AAFD0028FAD1284600F0ABFD284600F02C
S31508004880ADFD0028FAD101224FF40871284600F040
S315080048908CFD0121284600F0A7FD07B030BD00BFFA
S315080048A0F209002010B51C4908701C4C052301228A
S315080048B00146204600F0A1FD01212046BDE8104032
S315080048C000F092BD70B5144E3478144D4FF408714B
S315080048D0284600F0CFFD012818D100224FF40041E8
S315080048E00B4801F006F9284600F0C1FD06EB440125
S315080048F088802046074951F824108847204600F04A
S315080049000FF84FF40871284600F0C2FD70BD00BFCD
S31508004910000C01409C65000888080020002401401E
S31508004920F0B581B0044604EB840040001F494218E4
S3150800493093881F4D465A5788BE420FD253801F4848
S3150800494001880122A24011430180286860BB01F05A
S3150800495068FA286017480121017025E0164E368846
S315080049601F4697FBF6F7DB1B53801389D788405AF7
S31508004970874201D2D380E2E7184690FBF6F0C018CA
S31508004980D08001F04EFA296801F2E83282420BD251
S3150800499021B10020286007480121017007480188D5
S315080049A00122A2409143018001B0F0BDF009002028
S315080049B0C0080020E4080020BC660008CE080020D5
S315080049C070B582B04FF48050ADF8040003208DF81E
S315080049D0060010208DF80700544C01A9204601F066
S315080049E01DF801224FF48051204601F082F800217B
S315080049F04F4801F0CCFC684C00202060207100A8CC
S31508004A0001F032FE40F2D1751A4E4021304601F0CF
S31508004A1065F820B9009801F021FEA842F5D300A850
S31508004A2001F022FE40F2E9352021304601F056F821
S31508004A3020B1009801F012FEA842F5D300A801F0B3
S31508004A4013FE1F20207000F030F8064600F02DF8FF
S31508004A50304301D007D10BE0607A00F00F002178CF
S31508004A600909884204D0009801F0F8FDA842E8D365
S31508004A7002B070BD0014014030B581B0464C00014B
S31508004A8040F00F00207000F010F8054600F00DF811
S31508004A90284308D1607A00F00F0021780909884276
S31508004AA014BF0320002001B030BD2DE9F04381B0CA
S31508004AB000220121022001F0B9F8DFF870900022E7
S31508004AC04FF48051484601F014F8334D05F10801BA
S31508004AD0287801F0BDF8044605F10901687801F067
S31508004AE0B7F8804605F10A01A87801F0B1F806463C
S31508004AF005F10B01E87801F0ABF8074605F10C0162
S31508004B00287901F0A5F8054601224FF48051484658
S31508004B1000F0EFFF0021064801F039FC48EA0400DE
S31508004B2030433843284301B0BDE8F083000C014008
S31508004B300038004070B50446174D1F202870FFF74F
S31508004B40B4FF0646FFF7B1FF304308D1687A00F094
S31508004B500F0029780909884214BF03200020E97A42
S31508004B600909217070BD70B504460B4D0F202870D9
S31508004B70FFF79BFF0646FFF798FF304308D1687A90
S31508004B8000F00F0029780909884214BF0320002085
S31508004B90297A217070BD00009C08002000B581B0FC
S31508004BA00E49401A04D04FF48061401A09D012E029
S31508004BB001214FF40010FFF7D3FD00214FF4001038
S31508004BC007E001214FF48000FFF7CAFD00214FF4EA
S31508004BD08000FFF7C5FD01B000BD00BF00540040CE
S31508004BE070B586B005460C46AE8800A8FFF758FD96
S31508004BF002992648B1FBF0F080B24FF6C0723240F7
S31508004C000243AA802A884FF6FE731A402A80E26871
S31508004C101F4B9A4207D25200B1FBF2F189B204291E
S31508004C201ED204211CE063884BF6FF76B34204D1FA
S31508004C3002EB4202B1FBF2F105E019235A43B1FB3C
S31508004C40F2F141F480410A0501D141F0010141F434
S31508004C5000414FF4967250434FF47A7290FBF2F08B
S31508004C60401C2884A983288840F0010028802888C9
S31508004C704FF6F531084021880843E1880843288023
S31508004C802089A1880843288106B070BD40420F00DC
S31508004C90A18601000029018812BF41F001014FF6E3
S31508004CA0FE721140018070470029018819BF4FF430
S31508004CB0807211434FF6FF62114001807047002948
S31508004CC0018819BF4FF4007211434FF6FF52114085
S31508004CD0018070470029018812BF41F480614FF6B0
S31508004CE0FF3211400180704701827047008AC0B2C6
S31508004CF07047002A14BF41F0010101F0FE0101824C
S31508004D0070470029018812BF41F480514EF6FF72A0
S31508004D101140018070470029018812BF41F0200127
S31508004D204FF6DF72114001807047828A008B42EA93
S31508004D3000400002000A884201D101207047002085
S31508004D4070470000B0B581EA030C0CF0004C40F245
S31508004D50FF7515EA11541DBF15EA1357AC42AF4249
S31508004D603AE0E41923EA455343F48013C90241F0B3
S31508004D70004141EA50574FEAC02E1100AEFB02022D
S31508004D8000284FF00000E7FB01204FF00001E3FB8D
S31508004D900E2118BF42F00102401800214941E3FBE9
S31508004DA00701A4F580640F0302D25200404149412D
S31508004DB054F101046BDD470872F1004250F100001E
S31508004DC051EB0451A1F580115CBF41EA0C01B0BD5D
S31508004DD04CEA05510020B0BD05EA1357AC4214BF92
S31508004DE0AF4240E050EA410E1CBF52EA430E02E0D1
S31508004DF061460020B0BD24423C441AD13F42F7D058
S31508004E00090302BF01460020143FB1FA81FEA7EB51
S31508004E100E0401FA0EF70EF10C0ECEF1200100FA7F
S31508004E200EFEC84047EA000723EA455343F48013B9
S31508004E30A3E733F00043B3FA83F704BFB2FA82FE5E
S31508004E4077440B3FE41BB7F1200E2FBF02FA0EF38F
S31508004E50BB40C7F1200E22FA0EFE38BF43EA0E0306
S31508004E60BA40641C82E750EA410E14BF52EA430E68
S31508004E706FF000014FF4001717EB430F8ABF19466E
S31508004E8017EB410FB6E74CEA05510020B0BDD4F147
S31508004E900104B4F120070FDAC4F12007520828BF2D
S31508004EA042F0010210FA07F501FA07F7E1BF2A43B3
S31508004EB0E0403843E1400FE0352C99DCC7F1200487
S31508004EC052EA400220FA07F218BF42F0010231FA0C
S31508004ED007F0A1400A43002172F1004250F1000098
S31508004EE051EB0C01B0BD00002DE9F04F81B001F087
S31508004EF09BF801F0B9FA01F05DF901F0D9F800F074
S31508004F00FDFD00F033FFFEF791FDFEF72FFBFFF7DF
S31508004F10F9F9FCF7C5FF00F05DFE00F0E3FFFDF7C9
S31508004F20F3FAFFF74DFD00F0B9FA01F00CFBDFF8D4
S31508004F302C814B4DDFF82CB1DFF82CA1DFF82C9132
S31508004F404B4E4C4F4C4C03E000F0EAFF002020701B
S31508004F50FEF72AFB20780128F6D03878012804D1F4
S31508004F60FEF77FFF00203870F2E7307801283BD142
S31508004F7000F0F8FD012819D100224FF480513F486E
S31508004F8000F0B7FD00224FF48061404600F0B1FD05
S31508004F9001224FF40071404600F0ABFD002240218B
S31508004FA0404600F0A6FDFDF710F818E001224FF480
S31508004FB08051324800F09DFD00224FF400714046B2
S31508004FC000F097FD01224FF48061404600F091FD04
S31508004FD001224021404600F08CFDFCF7E1FF01F07C
S31508004FE073FA00203070B3E799F80000012803D15E
S31508004FF0002089F80000ABE79AF80000012803D1E1
S3150800500000208AF80000A3E79BF80000012803D1D6
S3150800501000208BF800009BE719480078012816D174
S315080050202878411C297018B1022807D003D308E054
S31508005030FFF770F907E0FDF739FA04E0FDF7EAF83B
S3150800504001E0002028700E480021017080E70D4815
S31508005050007801287FF47CAF0A48F5E70010014084
S31508005060DA080020AE080020AF080020B0080020AB
S31508005070B1080020B2080020B3080020000801404B
S31508005080AD080020AC08002070B44FF0004591EA46
S31508005090030F44BF6B4000F056BC841A71EB03063D
S315080050A004D26E40001BB141121973414FF4001C23
S315080050B01CEB410F34BF7CEB430684E00C0DA4EBDC
S315080050C01356362E7DDC012E43DC45EAC32343EA1C
S315080050D0525312BFD20292025B08240545EAC12147
S315080050E041EA5051D2EBC020994125D407D1B0FAF4
S315080050F080F610FA06F164D00020203608E0B1FAEE
S3150800510081F6B140C6F1200220FA02F21143B040FE
S315080051104FEAF474B4EB465434F001064FEA7404CB
S315080051200AD8D6F50016760D04F00044F04061FA68
S3150800513006F25040F1404840C00A40EA415021F08A
S31508005140004128BF5FEA500550F1000044EBD12129
S3150800515037E045EAC323DB0A45EAC121C90AB6F1A5
S3150800516020050EDD42EA0242120CC5F1200603FABA
S3150800517006F6EB4042EA06056D42984161F10001E8
S315080051800DE062FA06F5F240554063FA06FC82EA3B
S315080051900C02F3405A406D42904161EB030111F451
S315080051A0801F05D1641E620502D06D004041494149
S315080051B021F48011430875F1004350F1000041EBDA
S315080051C0045170BC70471CEB410F15D223F0004305
S315080051D052EA43060BD04FEA4C0CBCEB410F04D8FD
S315080051E00C0D661E342EB7DDEBE7801A994150EA9E
S315080051F0410608BF0021E4E708BF1CEB430F28BFA0
S315080052006FF00001DDE7000030B585B005460C46B5
S31508005210288A4CF2FF010840E1880843E1890843DF
S31508005220218A0843618A0843A18A08432882A889F3
S315080052304EF6F3110840A188084321890843A1893D
S315080052400843A881A88A4FF6FF41084061890843A8
S31508005250A88200A8FFF724FA0D4885420CBF0398D8
S3150800526002981921484321688900B0FBF1F06421AE
S31508005270B0FBF1F21201130901FB130000013230F1
S31508005280B0FBF1F000F00F001043288105B030BDE7
S31508005290003801400029818912BF41F400514DF6BA
S315080052A0FF7211408181704710B40B065B0F012411
S315080052B001F01F0104FA01F1012B01D10C3003E0C2
S315080052C0022B0CBF10301430002A026814BF114399
S315080052D022EA0101016010BC7047C905C90D818029
S315080052E070478088C005C00D704700880140481E79
S315080052F08041C043C00F7047028822EA010101803D
S31508005300704710B40A06520F012301F01F0403FA6E
S3150800531004F4012A01D1828903E0022A0CBF028A19
S31508005320828A2240090A03FA01F10088084022B15C
S31508005330401E8041C043C00F00E0002010BC7047EB
S3150800534002880123090A03FA01F122EA0101018010
S315080053507047000042680E4B1A400B681A430B79D7
S3150800536042EA0322426082680A4B1A40CB681A4313
S315080053708B681A434B7942EA43028260C26A22F476
S315080053807002097CFF31C9B242EA0151C162704715
S31508005390FFFEF0FFFDF7F1FF0029816812BF41F01B
S315080053A001014908490081607047C9B2002A42686C
S315080053B014BF114322EA010141607047816841F038
S315080053C008018160704780680006C00E00F0010081
S315080053D07047816841F00401816070478068000663
S315080053E0800E00F0010070470029816814BF41F45F
S315080053F0A00121F4A0018160704770B40324072539
S315080054000A290AD301F1F6067443C668A54026EAB6
S315080054100505A3402B43C36007E04C430669A54036
S3150800542026EA0505A3402B43036105231F24072A03
S3150800543008D2FF325A43436B9440A3439140194321
S31508005440416312E00D2A08D2F9325A43036B94409D
S31508005450A34391401943016307E0F3325A43C36AF1
S315080054609440A34391401943C16270BC7047C06C15
S3150800547080B2704742680A40D2B20068090A0842F8
S3150800548004D0501E8041C043C00F704700207047AB
S315080054900268090A22EA01010160704710B582B064
S315080054A054208DF801006424012200A92046FDF746
S315080054B0E3F89DF80000FF2805D101220DF101014E
S315080054C02046FDF757F9641C682CEDDB6A208DF839
S315080054D001008424012200A92046FDF7CDF89DF895
S315080054E00000FF2805D101220DF101012046FDF734
S315080054F041F9641C882CEDDB0320FFF7BDFA28B9B7
S315080055000D48C07800F00F000C4908700120FFF71D
S31508005510B3FA70B9094808490979890604D50121F9
S31508005520417000F041F804E000214170007800F075
S3150800553013F802B010BD00BFA4080020D808002048
S3150800554002B5002A0CBF64308430012200A980B25B
S31508005550FDF710F901B000BDF0B581B0044600258D
S315080055601E4E012707FA05F000EA0401481E80418D
S31508005570C043C00F0222327077700022B270F570F5
S315080055803271E9B200280CBF01F1640001F1840010
S315080055900122B11C80B2FDF76FF8FFF786FA6D1C81
S315080055A0042DDFDB01B0F0BD30B581B000240B4D12
S315080055B002212970012169700021A970EC702971F6
S315080055C00122A91CE0B2843080B2FDF755F8FFF736
S315080055D06CFA641C042CEBDB01B030BD9C0800207F
S315080055E010B582B04FF48050ADF8000003208DF856
S315080055F0020010208DF80300434C00A9204600F055
S315080056000DFA4FF40050ADF8000003208DF80200A3
S3150800561010208DF8030000A9204600F0FFF94FF48A
S315080056208040ADF8000003208DF8020010208DF8A8
S31508005630030000A9204600F0F1F94FF40040ADF848
S31508005640000003208DF8020004208DF8030000A94D
S31508005650204600F0E3F94020ADF8000003208DF85D
S31508005660020004208DF8030000A9204600F0D6F9B0
S3150800567002B010BD10B582B04FF48050ADF80000EE
S3150800568003208DF8020004208DF803001E4C00A9A3
S31508005690204600F0C3F94FF40050ADF8000003208F
S315080056A08DF8020004208DF8030000A9204600F0BA
S315080056B0B5F94FF48040ADF8000003208DF80200DC
S315080056C004208DF8030000A9204600F0A7F94FF43E
S315080056D00040ADF8000003208DF8020004208DF884
S315080056E0030000A9204600F099F94020ADF8000013
S315080056F003208DF8020004208DF8030000A9204637
S3150800570000F08CF902B010BD00140140F0B581B06C
S3150800571005460C4600F0AFFEFEF7BAFC3520FEF74C
S31508005720EBFD04208DF8000045F25556304600F092
S31508005730BBFE40F2E24000F0C1FE00F0C5FE0027C5
S315080057407CB19DF8000004280BD12846FEF7AAFC78
S315080057508DF8000000F0B8FE7F1C05F58065A742AD
S31508005760EFD3304600F0A0FE40F2712000F0A6FE0E
S3150800577000F0AAFE00F08AFE9DF8000004280CBF7F
S315080057800120002001B0F0BD2DE9F04D81B002B432
S315080057909346054600F06FFE00260127042445F2CD
S315080057A0555000F081FE40F2E24000F087FE00F01E
S315080057B08BFE4FF0FF0826E04FF0FF3A00200099D5
S315080057C0711800225E4511DA08FA02F32AEA030381
S315080057D011F8014B4FEAC00C04FA0CF444EA030A28
S315080057E0761CB6B2401C08320428EBDB5146284624
S315080057F0FEF7D3FC044600F067FE042C0BD128689C
S31508005800504508D12D1D5E4506DA042C04D12868BA
S3150800581010F1010FD0D0002745F2555000F044FE94
S3150800582040F2712000F04AFE00F04EFE00F02EFE17
S31508005830384602B0BDE8F08D10B582B000208DF86C
S3150800584000003B4C0121204600F048F928B99DF894
S31508005850000040F001008DF800000221204600F00B
S315080058603DF928B99DF8000040F002008DF80000C7
S315080058700421204600F032F928B99DF8000040F0CE
S3150800588004008DF800000821204600F027F928B901
S315080058909DF8000040F008008DF800001021204611
S315080058A000F01CF928B99DF8000040F010008DF8AA
S315080058B000009DF8000002B010BD10B582B00020AF
S315080058C08DF800001A4C4FF48071204600F006F956
S315080058D028B99DF8000040F001008DF800004FF44B
S315080058E00071204600F0FAF828B99DF8000040F04B
S315080058F002008DF800004FF48061204600F0EEF8B3
S3150800590028B99DF8000040F004008DF800004FF417
S315080059100061204600F0E2F828B99DF8000040F042
S3150800592008008DF800009DF8000002B010BD0000C8
S315080059300014014070B44FF0004591EA030C44BFCF
S315080059406B40FFF7AABB841A71EB030603D2001B50
S31508005950B141121973414FF4001C1CEB410F34BFBF
S315080059607CEB430443E00C0DA4EB1356352E50DCB8
S3150800597045EAC323DB0A45EAC121C912B6F1200567
S315080059800DDD63FA05F6EB4086EA0305124218BFF9
S3150800599045F00105C01851F100010CD213E062FA76
S315080059A006F5F2405540F3415A40B340F3405A4099
S315080059B08018594107D349085FEA30005FEA350580
S315080059C028BF45F0010501F58011420875F100422E
S315080059D050F1000041EB045170BC4FF4001C1CEB65
S315080059E0410F38BF70470020090D090570471CEBA9
S315080059F0410F10D252EA43060BD0BCEB410F05D833
S31508005A000C0DAB43661E342EB5DD02E0AB438018A1
S31508005A10594170BC704770BC704700002DE9F041D1
S31508005A20CB7803F00F02DB0601D58B781A430B8877
S31508005A30DCB22CB3D0F800C0002401250F2605FAE5
S31508005A4004F707EA0308B84515D14FEA840E06FAA3
S31508005A500EF82CEA080C02FA0EFE4EEA0C0C91F827
S31508005A6003E0BEF1280F00D1476191F803E0BEF1CB
S31508005A70480F00D10761641C082CE0D3C0F800C0A9
S31508005A804FF48074A34227D3D0F804C0002401251C
S31508005A900F2604F1080705FA07F707EA0308B845C9
S31508005AA015D14FEA840E06FA0EF82CEA080C02FA0B
S31508005AB00EFE4EEA0C0C91F803E0BEF1280F00D159
S31508005AC0476191F803E0BEF1480F00D10761641CF5
S31508005AD0082CDED3C0F804C0BDE8F0818068014018
S31508005AE0481E8041C043C00F70470161704741613D
S31508005AF07047002A14BF01614161704710B582B032
S31508005B004FF48050ADF8000003208DF802001020F5
S31508005B108DF8030000A92D48FFF780FF4FF4E060D9
S31508005B20ADF8000003208DF8020010208DF8030060
S31508005B30274C00A92046FFF771FF4020ADF800006A
S31508005B4003208DF8020010208DF8030000A92046D6
S31508005B50FFF764FF00224FF480712046FFF7C9FF64
S31508005B6002B010BD30B581B064200090174C0122F8
S31508005B704FF480512046FFF7BCFF0098411E009164
S31508005B800028FAD10E4800680E49097808430E49DC
S31508005B90098841EA000580210D48FFF79FFF401E4E
S31508005BA08041C043C00F284307D000224FF48051DC
S31508005BB02046FFF79EFF012000E0002001B030BD1F
S31508005BC050080020D6080020CE0800200008014012
S31508005BD00010014000B581B001214FF48040FEF766
S31508005BE0B3FD4FF46040ADF8000003208DF80200C5
S31508005BF018208DF8030000A90B48FFF70FFF13497B
S31508005C00002008804FF482704880002088804FF476
S31508005C10007048811020888107200882224800F0F9
